:100000000C943A000C9457000C9457000C94570031
:100010000C9457000C9457000C9457000C94570004
:100020000C9457000C9457000C9457000C945700F4
:100030000C9457000C9457000C9457000C945700E4
:100040000C9457000C9457000C9457000C945700D4
:100050000C9457000C9457000C9457000C945700C4
:100060000C9457000C9457000C9457000C945700B4
:100070000C94570011241FBECFEFD4E0DEBFCDBFDC
:1000800011E0A0E0B1E0ECEBF6E102C005900D92CA
:10009000A83FB107D9F722E0A8EFB1E001C01D9257
:1000A000AF30B207E1F70E94B8080C945C0B0C94D7
:1000B00000008CE291E00E94A80885E391E00E9494
:1000C000270884E10E94170881E090E00E941D0843
:1000D00081E090E00E94220880E090E008950F9374
:1000E0001F93CF93DF93EC018B0181E090E00E949E
:1000F0001D080E940C070E945900209719F483EDF7
:1001000091E00AC0C130D10519F489ED91E004C035
:10011000229721F483EE91E00E9408080E94E705EF
:100120008CE291E00E9435060E944A060E942C084B
:100130000E947B0501301105B9F784E00E94490552
:10014000882391F381E090E0DF91CF911F910F918F
:100150000895CF93DF930E940C070E94590080E01E
:1001600090E00E941D088FEE91E00E940808C1E017
:10017000D0E00E944A060E942C080E947B0580E085
:100180000E944905882361F0C330D10561F32197AE
:1001900079F482EF91E00E940808C2E0D0E0E9CF54
:1001A00082E00E944905882369F0C130D10539F405
:1001B00085EF91E00E940808C3E0D0E0DACF2297F3
:1001C00041F7D1CF84E00E944905882391F20E9433
:1001D0000C07CE01DF91CF9108950F931F93CF931A
:1001E000DF93EC018B010E94240BBE01601B710B9D
:1001F0006F5F7F4F0E94810A800F911FDF91CF9127
:100200001F910F910895EF92FF920F931F93CF9339
:10021000DF93CDB7DEB77C0109851A8560E089855B
:100220009A850E9462068B859C858130910551F0EC
:1002300038F08230910541F0039739F4015005C040
:10024000115003C00F5F01C01F5F09871A8761E06B
:1002500089859A850E9462068EE2FE013996D70151
:1002600001900D928A95E1F7C701DF91CF911F911F
:100270000F91FF90EF900895CF93DF93CDB7DEB746
:100280008D81853018F48E81873040F061E070E018
:1002900081E090E00E946F00019719F080E090E00B
:1002A00002C085E090E0DF91CF910895EF92FF9238
:1002B0000F931F93CF93DF93CDB7DEB78E01075F08
:1002C0001F4F7E018DE1E80EF11C9985F8018481B4
:1002D000981741F00E5F1F4F0E151F05B1F780E014
:1002E00090E00FC09A85F80185819813F3CF61E003
:1002F00070E081E090E00E946F00019759F785E07F
:1003000090E0DF91CF911F910F91FF90EF900895B2
:10031000FF920F931F93CF93DF93CDB7DEB7AE97C6
:100320000FB6F894DEBF0FBECDBF8C010E94240B28
:1003300065E070E00E94810AF82E0E94240B67E0BD
:1003400070E00E94810ADE0111969E012B5E3F4FF4
:10035000FD0198E014969C93149715969C9315971D
:1003600059961C921E9258971296A217B30791F7AE
:10037000F9828A831C821B821EA61DA68EE2D801EA
:1003800001900D928A95E1F7C801AE960FB6F894E8
:10039000DEBF0FBECDBFDF91CF911F910F91FF90B8
:1003A0000895AF92BF92CF92DF92EF92FF920F9398
:1003B0001F93CF93DF93CDB7DEB785E0E82EF12C06
:1003C00097E0C92ED12C5E0181E2A80EB11C0E94DB
:1003D000240BB7010E94810A082F0E94240BB6014A
:1003E0000E94810A182F2D853E85FE013D9680E0F2
:1003F00090E04481041303C04581141731F00217C3
:1004000021F0131711F081E090E03296EA15FB0518
:1004100081F7892BE1F261E0C8010E946206C80100
:10042000DF91CF911F910F91FF90EF90DF90CF90D0
:10043000BF90AF900895CF93DF93CDB7DEB7BC01E7
:1004400089A99AA981309105F1F42D819E814F816E
:1004500058855E8F4D8F4115510519F429879F5F8F
:1004600005C04230510521F4298791509A873EC03A
:100470004130510511F4215004C043305105B1F50C
:100480002F5F2987F3CF029788F1FE013596AE01E1
:10049000495E5F4F8681883029F58781883011F564
:1004A000208D318D338F228F2115310529F48481E0
:1004B000868385818F5F15C02230310529F48481C0
:1004C0008683858181500DC02130310519F48481E6
:1004D000815005C02330310529F484818F5F8683E4
:1004E000858187833296E417F507A1F68EE2FE0137
:1004F0003596DB0101900D928A95E1F7CB01DF91F2
:10050000CF9108952F923F924F925F926F927F9278
:100510008F929F92AF92BF92CF92DF92EF92FF9213
:100520000F931F93CF93DF93CDB7DEB7CC55D1098F
:100530000FB6F894DEBF0FBECDBF7C010E94E70569
:10054000CE0101960E9488011DA56EA422E0E2164C
:10055000F10451F033E0E316F10469F4812C912C9D
:10056000A12C30E4B32E0DC0812C912C20EEA22EB4
:100570002FE3B22E06C0812C912C90ECA92E9FE384
:10058000B92ECC24C394D12CE12CF12CC114D1046C
:10059000E9F51DA76EA68DB79EB78E970FB6F89496
:1005A0009EBF0FBE8DBFADB7BEB711968EE2FE01E6
:1005B000319601900D928A95E1F70E943C012C0141
:1005C0000FB6F894DEBF0FBECDBF8DB79EB78E9726
:1005D0000FB6F8949EBF0FBE8DBFADB7BEB71196D4
:1005E0008EE2FE01319601900D928A95E1F70E940C
:1005F00056010FB6F894DEBF0FBECDBF35E04316EF
:10060000510409F4EFC0059709F4ECC00E944A06B2
:100610000E947B050E942C0881E00E9449058823E6
:1006200019F081E090E011C082E00E944905882322
:1006300029F022E030E03C832B8311C083E00E944C
:100640004905882329F083E090E09C838B8307C0D1
:1006500080E00E944905882311F01C821B829FEFD5
:10066000E91AF90AB7010F2C000C880B990B0E94AC
:100670009E091B012C01A501940160E070E086E950
:1006800093E40E942A099B01AC01C201B1010E94BE
:100690002A0A18160CF07ACF1DA76EA62DB73EB702
:1006A0002E5231090FB6F8943EBF0FBE2DBFADB725
:1006B000BEB711968EE2FE01319601900D928A9599
:1006C000E1F7CE018F960E9403018EE2FE01BF96F4
:1006D000DE01119601900D928A95E1F7EDA4FEA43A
:1006E0000FB6F894DEBF0FBECDBFCA94CD2809F572
:1006F0002DB73EB72E5231090FB6F8943EBF0FBE4C
:100700002DBFADB7BEB711968EE2FE0131960190B6
:100710000D928A95E1F70E94D101782E092F0FB62C
:10072000F894DEBF0FBECDBF1E2D6F2CC12CD12C77
:100730002BCF89818711F8CF8A818013F5CF2DECDB
:100740003CEC4CE45EE3C501B4010E94BE084B01E1
:100750005C019FEFE91AF90AFEA6EDA62DB73EB798
:100760002E5231090FB6F8943EBF0FBE2DBFADB764
:10077000BEB711968EE2FE01319601900D928A95D8
:10078000E1F7CE018F960E941B028EE2FE01BF961A
:10079000DE01119601900D928A95E1F71DA56EA4D8
:1007A0000FB6F894DEBF0FBECDBF2DB73EB72E52A9
:1007B00031090FB6F8943EBF0FBE2DBFADB7BEB71F
:1007C00011968EE2FE01319601900D928A95E1F725
:1007D0000E94D101782E092F0FB6F894DEBF0FBE0C
:1007E000CDBFA4CF85E090E0C45ADF4F0FB6F89498
:1007F000DEBF0FBECDBFDF91CF911F910F91FF9054
:10080000EF90DF90CF90BF90AF909F908F907F90B0
:100810006F905F904F903F902F9008950E94340406
:100820000E94E7058CE291E00E94A80885E391E030
:100830000E94270884EF91E00E94350661E070E095
:1008400080E090E00E946F00019741F40E940C0745
:100850000E94A9000E948202059719F080E090E0B2
:10086000089585E090E00895E1E6F0E080E8808377
:100870001082A89584B7877F84BFE0E6F0E080818E
:1008800088618083108208951092800084E08093B4
:100890008100109285001092840008958091840058
:1008A000909185000895AC0180918400909185001D
:1008B0009C01241B350B283E3340B0F7089520914E
:1008C000840030918500820F931F0C94530485306F
:1008D00098F4673088F421E030E001C0220F6A9577
:1008E000EAF7E82FF0E0E750FE4F922F90958081D5
:1008F00089234111822B80830895853080F46730ED
:1009000070F421E030E001C0220F6A95EAF7E82F89
:10091000F0E0E750FE4F8081282381E009F480E079
:1009200008956091F801E62FF0E0E750FE4F8081D6
:100930000E94DF048091F8018F5F853018F4809366
:10094000F80108951092F8010895E9EFF1E010829E
:10095000118212821382148208950E94BD040C94A5
:10096000A5049C01FC01FF2784A1832B84A395A1EE
:10097000892F832B85A381E00895CF93DF93CBEB61
:10098000D1E0899199910E94B10481E0C93CD807D6
:10099000C1F783E090E40E94B10480E090E80E94F7
:1009A000B10483E090E10E94B10483E090E80E94EA
:1009B000B10483E090E2DF91CF910C94B104E09117
:1009C000FE01F0E0EE0FFF1FEF54FE4F208131815A
:1009D000F901FF2795A1932B95A3EBEBF1E097E0AD
:1009E00020813181D901BB2795962C91959780FF65
:1009F00003C03095232301C0232B95962C93869515
:100A0000915032969111ECCFE62FF0E0EE0FFF1FE0
:100A1000EF54FE4F80819181FC01FF2785A19095C5
:100A2000892385A36093FE0108956230710519F151
:100A300070F46130710559F5FC01FF2724A1392FAD
:100A40003095922F932394A385A183231DC06330F7
:100A5000710541F064307105D1F4FC01FF2784A1D8
:100A6000892B0FC0FC01FF2784A1892B84A385A1BA
:100A70009095892309C0FC01FF2784A1292F209587
:100A8000822384A385A1892B85A381E0089580E03A
:100A90000895E82FF0E0EE0FFF1FE150FE4F808138
:100AA000882321F0918181E0892702C080E090E0D5
:100AB00081700895E82FF0E0EE0FFF1FE150FE4F28
:100AC0008081811102C0818102C080E090E081704C
:100AD0000895E82FF0E0EE0FFF1FE150FE4F8081F8
:100AE0000895E82FF0E0EE0FFF1FE150FE4F9081D8
:100AF00081E0892708957F928F929F92AF92BF9253
:100B0000CF92DF92EF92FF920F931F93CF93DF93D9
:100B1000CFEFD1E059ECC52E51E0D52E66E0762E10
:100B200088818983F601019111916F015801BB24DD
:100B3000F50124A1E12EFF2485A190E08E219F21C3
:100B400030E02E213F21232B31F0892B51F433E06B
:100B5000832E912C0DC0892B41F488248394912CF1
:100B600007C094E0892E912C03C082E0882E912C3E
:100B700064E070E0C8010E94150562E070E0C80101
:100B80000E941505872D8A95F1F7F50183A190E064
:100B9000E822F92281E0EF2809F080E08883B4019F
:100BA000C8010E9415052296F2E0C930DF0709F05E
:100BB000B7CFDF91CF911F910F91FF90EF90DF9012
:100BC000CF90BF90AF909F908F907F9008950895A1
:100BD000009789F0FC012381621B67FD09C0062E86
:100BE000000C770B248130E081E0621773070CF072
:100BF00080E08170089580E00895CF93DF93FC0139
:100C0000892B79F18181481760F59281291748F580
:100C10009381A62FA91BA7FD24C00A2E000CBB0B95
:100C2000C481D0E0AC17BD07E4F4622F0E94530AE0
:100C3000480F858190E0BD010E945C0A0696242F32
:100C4000269526952695E80FF91FE20FF11D808164
:100C500090E0477002C0959587954A95E2F78170BC
:100C600001C080E0DF91CF910895CF93DF93EC0135
:100C70000E9444049E0140E050E062E17AE780E097
:100C800090E00E94950A30930C0220930B02DF91B2
:100C9000CF9108958091090290910A020E94530415
:100CA0002091090230910A0280910B0290910C026E
:100CB000820F931F90930A02809309020895692F6F
:100CC0000C947D0441E0611101C040E0692F0C9457
:100CD00067040C9462065F926F927F928F929F924C
:100CE000AF92BF92CF92DF92EF92FF920F931F933A
:100CF000CF93DF93562E872E942E5C01E62EF72E8F
:100D0000C62F660FDD0BC81BD10987FDD395072FB2
:100D1000770F110B091B110997FD1395D7FF03C01E
:100D200077247A9402C07724739417FF03C0662453
:100D30006A9402C066246394D7FF03C0D195C1951D
:100D4000D10917FF03C0119501951109C017D107EB
:100D5000A4F06E01D594C794F92EA51411F1692D54
:100D60008A2D9F2D0E946206C01AD10AD7FE03C0A9
:100D7000CC0EDD1EF60CA70CF0CF6801D594C794FD
:100D8000E82EB81471F0692D8E2D9B2D0E946206FD
:100D9000CC1ADD0AD7FE03C0C00ED11EE70CB60C7C
:100DA000F0CF692DC701DF91CF911F910F91FF9077
:100DB000EF90DF90CF90BF90AF909F908F907F90FB
:100DC0006F905F900C946206FF920F931F93CF93E6
:100DD000DF93D82FF92E162FC72F042F792F0E94BB
:100DE0006B06402F6D2F7C2F8D2F9F2D0E946B0641
:100DF000402F612F7C2F812F9F2D0E946B06402F4B
:100E0000612F7C2F8D2F9C2F0E946B06DF91CF913D
:100E10001F910F91FF9008950E94A504E0E0F1E07A
:100E2000118A14860895DF92EF92FF920F931F9319
:100E3000CF93DF93D82E7B01162F0F2D80910201C7
:100E400090910301D0E0019799F50F2D0D1BE091D2
:100E50000801F09109018181C0E0D817B8F48091B0
:100E6000080190910901FC012281C21768F42C2F1E
:100E70004D2F6D2D0E94FD05682F8E2D8C0F902F0C
:100E80000E946206CF5FEBCFDF5FDFCFE09108010A
:100E9000F09109018281C81740F460E08E2D8C0F1B
:100EA000902F0E946206CF5FF1CF015030C0DF5F0C
:100EB0001E2D1D0FE0910801F09109018181C0E014
:100EC000D817A8F48091080190910901FC012281B2
:100ED000C21768F72C2F4D2F6D2D0E94FD05682F2E
:100EE000812F9F2D9C0F0E946206CF5FEBCFE09178
:100EF0000801F09109018281C81740F460E0812F58
:100F00009F2D9C0F0E946206CF5FF1CF1F5F812F44
:100F1000902FDF91CF911F910F91FF90EF90DF9075
:100F200008950F931F93CF938C01C0E0F801819136
:100F30008F01882341F00E941307BC01CF5F8530E9
:100F400014F477FFF3CF8C2FCF911F910F91089559
:100F50000F931F93CF93DF9310920C0140930D01D9
:100F6000109210010091080110910901011511055D
:100F700009F449C09B01EC01F801818160910601EF
:100F80007091070190E00E945C0ABC0180910A0107
:100F900090910B010E946D0ACB016AE070E00E9403
:100FA0005C0A90930F0180930E013093050120930A
:100FB000040140E250E0BE0181E191E00E94340B67
:100FC00080910001909101010197E9F4FE010190E7
:100FD0000020E9F73197BF016C1B7D0BF80181817F
:100FE0008F5F0E94530A81502091020130910301CA
:100FF0002130310511F095E001C097E0981718F401
:101000008EEF80931001DF91CF911F910F91089582
:1010100020910201309103012130310511F070E07F
:1010200001C076E04FEF60E00E94A807089590E0CD
:101030009093070180930601089590930101809396
:101040000001089590930301809302010895909305
:10105000090180930801089580910D0290910E027C
:10106000019690930E0280930D0220910E01309113
:101070000F018217930708F469C010920E021092B4
:101080000D02E0910C01F0E0E050FF4F81898111E9
:101090000AC080910D01823008F458C081508093BD
:1010A0000D0110920C0180910C0190E0FC01E050C8
:1010B000FF4F2189222309F449C04091000150913A
:1010C0000101209110014115510521F041305105D8
:1010D00099F024C0211122C0609104017091050192
:1010E0008F5E9E4F0E94910790E0019790910C01B6
:1010F000890F80930C0112C0609104017091050169
:1011000040910201509103014130510511F4720FD9
:1011100001C0621B8F5E9E4F0E949107809110015B
:101120008F5F80931001082E000C990BE09108014D
:10113000F0910901218130E0281739073CF4109221
:10114000100180910C018F5F80930C010C9491042D
:10115000CF93DF93C0E0D1E09B878A870E94AD04E4
:1011600084E190E09F838E83DF91CF910C940C07F4
:101170000E94E7050E940E04FDCF5058BB27AA2706
:101180000E94D5080C94F0090E94E20938F00E94F0
:10119000E90920F039F49F3F19F426F40C94DF0993
:1011A0000EF4E095E7FB0C94D909E92F0E94010A9F
:1011B00058F3BA17620773078407950720F079F48C
:1011C000A6F50C94230A0EF4E0950B2EBA2FA02D51
:1011D0000B01B90190010C01CA01A0011124FF27E4
:1011E000591B99F0593F50F4503E68F11A16F040DF
:1011F000A22F232F342F4427585FF3CF46953795DE
:101200002795A795F0405395C9F77EF41F16BA0BA2
:10121000620B730B840BBAF09150A1F0FF0FBB1F50
:10122000661F771F881FC2F70EC0BA0F621F731F99
:10123000841F48F4879577956795B795F7959E3FF6
:1012400008F0B0CF9395880F08F09927EE0F979587
:10125000879508950E943E090C94F0090E94E909BF
:1012600058F00E94E20940F029F45F3F29F00C9405
:10127000D90951110C94240A0C94DF090E94010A27
:1012800068F39923B1F3552391F3951B550BBB27B5
:10129000AA2762177307840738F09F5F5F4F220FFA
:1012A000331F441FAA1FA9F335D00E2E3AF0E0E8F1
:1012B00032D091505040E695001CCAF72BD0FE2F3B
:1012C00029D0660F771F881FBB1F261737074807CF
:1012D000AB07B0E809F0BB0B802DBF01FF27935887
:1012E0005F4F3AF09E3F510578F00C94D9090C9469
:1012F000240A5F3FE4F3983ED4F38695779567958B
:10130000B795F7959F5FC9F7880F911D96958795BB
:1013100097F90895E1E0660F771F881FBB1F6217DA
:1013200073078407BA0720F0621B730B840BBA0B98
:10133000EE1F88F7E0950895E89409C097FB3EF406
:1013400090958095709561957F4F8F4F9F4F992312
:10135000A9F0F92F96E9BB279395F6958795779590
:101360006795B795F111F8CFFAF4BB0F11F460FF50
:101370001BC06F5F7F4F8F4F9F4F16C0882311F0A8
:1013800096E911C0772321F09EE8872F762F05C0BC
:10139000662371F096E8862F70E060E02AF09A9557
:1013A000660F771F881FDAF7880F9695879597F94C
:1013B000089597F99F6780E870E060E008959FEFD7
:1013C00080EC089500240A941616170618060906DC
:1013D000089500240A9412161306140605060895AB
:1013E000092E0394000C11F4882352F0BB0F40F433
:1013F000BF2B11F460FF04C06F5F7F4F8F4F9F4F73
:10140000089557FD9058440F551F59F05F3F71F0F4
:101410004795880F97FB991F61F09F3F79F087955B
:101420000895121613061406551FF2CF4695F1DFE4
:1014300008C0161617061806991FF1CF8695710574
:10144000610508940895E894BB2766277727CB01A8
:1014500097F908950E942F0A08F48FEF0895990FC5
:101460000008550FAA0BE0E8FEEF16161706E8076E
:10147000F907C0F012161306E407F50798F0621B8F
:10148000730B840B950B39F40A2661F0232B242B64
:10149000252B21F408950A2609F4A140A6958FEF83
:1014A000811D811D0895002480FD060E660F11F038
:1014B0008695D1F7802D08950024552704C0080E85
:1014C000591F880F991F009729F076956795B8F3F3
:1014D0007105B9F7802D952F0895AA1BBB1B51E10B
:1014E00007C0AA1FBB1FA617B70710F0A61BB70B94
:1014F000881F991F5A95A9F780959095BC01CD0139
:10150000089597FB072E16F4009407D077FD09D0B5
:101510000E946D0A07FC05D03EF4909581959F4F7F
:101520000895709561957F4F0895052E97FB1EF4E1
:1015300000940E94AC0A57FD07D00E94B40A07FC31
:1015400003D04EF40C94AC0A5095409530952195FB
:101550003F4F4F4F5F4F08959095809570956195DF
:101560007F4F8F4F9F4F0895A1E21A2EAA1BBB1BDE
:10157000FD010DC0AA1FBB1FEE1FFF1FA217B3075F
:10158000E407F50720F0A21BB30BE40BF50B661F75
:10159000771F881F991F1A9469F760957095809539
:1015A00090959B01AC01BD01CF0108958F929F9250
:1015B000AF92BF92CF92DF92EF92FF92CF93DF93E1
:1015C000EC01688179818A819B81611571058105B2
:1015D000910521F464E279ED8BE597E02DE133EF9D
:1015E00041E050E00E94950A49015A0127EA31E49E
:1015F00040E050E00E94430B6B017C012CEE34EF85
:101600004FEF5FEFC501B4010E94430BDC01CB013A
:101610008C0D9D1DAE1DBF1DB7FF03C00197A10915
:10162000B04888839983AA83BB839F77DF91CF914A
:10163000FF90EF90DF90CF90BF90AF909F908F90F2
:1016400008950E94D60A089581E391E00E94D60A87
:101650000895A0E0B0E08093310190933201A0930F
:101660003301B09334010895FB01DC014150504037
:1016700048F001900D920020C9F701C01D92415021
:101680005040E0F70895EE27FF27AA27BB2708C0A0
:10169000A20FB31FE41FF51F220F331F441F551F56
:1016A000969587957795679598F37040A9F7009779
:0C16B00099F7BD01CF010895F894FFCF19
:1016BC00000000000000140000000000000000000A
:1016CC00000000000000000000000000000000000E
:1016DC0000000000000000000000000000000000FE
:1016EC000001000000010305203B0200009220EBEA
:1016FC00737D5FDE3DA552EA7A14004A222229BA94
:10170C002ED0050014C0010020A4126A2B9A74A3D9
:10171C0072A338ED498F38CE2AA712AA2AAE4910E7
:10172C000410145444380E11152A250000EA5BEB02
:10173C003A4F726B3BCF73CF134F7AED5B97742498
:10174C007B5D564972FD5B6F5B6F7BEF136F7FEFB9
:10175C0057CE3897246D7B6D2BED5FAD5AAD24A71A
:10176C00720340008003100380032000400020001F
:10177C001000080004000200010380034003200055
:10178C00800310534E414B450047414D45204F5669
:10179C0045520057454C4C20504C41594544004C47
:0817AC0031004C32004C330007
:00000001FF
