:100000000C9447000C9464000C9464000C946400FD
:100010000C9464000C9464000C9464000C946400D0
:100020000C9464000C9464000C9464000C946400C0
:100030000C9464000C9464000C9464000C946400B0
:100040000C9464000C9464000C9464000C946400A0
:100050000C9464000C9464000C9464000C94640090
:100060000C9464000C9464000C9464000C94640080
:100070000C946400AC06AF06B206B506B806BB0623
:10008000BE06C106C406C706CA06CD06D0061124A0
:100090001FBECFEFD4E0DEBFCDBF13E0A0E0B1E0E4
:1000A000E8E8F0E202C005900D92AC37B107D9F74D
:1000B00023E0ACE7B3E001C01D92A53BB207E1F736
:1000C0000E948C0D0C9442100C9400006F927F9251
:1000D0008F929F92AF92BF92CF92DF92EF92FF9258
:1000E0000F931F93CF93DF93CDB7DEB7E6970FB68D
:1000F000F894DEBF0FBECDBF5C0128960FAD2897E8
:1001000029961FAD29972B96EEACFFAC2B9786E373
:10011000FE01E95BFF4FDE01119601900D928A9579
:10012000E1F760E029968EAD9FAD29970E94BA0A4B
:1001300081E0E816F10479F058F0A2E0EA16F10443
:1001400069F0B3E0EB16F10481F466246A940AC006
:1001500077247A9405C06624639404C0772473944A
:10016000710E04C0600E712E02C0712E602E60E010
:100170002D968EAD9FAD2D970E94BA0A2C968FAD0D
:100180002C978830B1F02D968FAD2D97883089F05F
:10019000A596FFAEEEAEA5972C960FAF2C972D9699
:1001A0001FAF2D9761E02D968EAD9FAD2D970E94CC
:1001B000BA0AFE01E95BFF4F7F018E010F5F1F4FFF
:1001C00088248394912C6401F2E0CF0ED11CCC0CD6
:1001D000DD1CE7E4F0E0EC0FFD1FEC0DFD1D60E021
:1001E000808191810E94BA0AD70116968C91169748
:1001F000E7E4F0E0EC0FFD1FEC0DFD1D8830E9F0A9
:1002000017968C918830C9F0D8015C968D919C919D
:100210005D97D7015F969C938E935E97D801149655
:100220008D919C911597D70117969C938E93169755
:1002300061E0808191810E94BA0ABFEF8B1A9B0A0C
:10024000E2E0EE0EF11C0E5F1F4FFCE08F169104F2
:1002500009F0B9CF28966FAE289729967FAE2997D7
:1002600061E029968EAD9FAD29970E94BA0A86E378
:10027000FE01E95BFF4FD50101900D928A95E1F7F0
:10028000C501E6960FB6F894DEBF0FBECDBFDF9175
:10029000CF911F910F91FF90EF90DF90CF90BF9083
:1002A000AF909F908F907F906F900895CF93DF9342
:1002B000CDB7DEB78D81853018F48E81873040F060
:1002C00061E070E081E090E00E941906019719F06A
:1002D00080E090E002C085E090E0DF91CF9108954A
:1002E000EF92FF920F931F93CF93DF93CDB7DEB7BB
:1002F0008E01075F1F4F7E0181E2E80EF11C998598
:10030000F8018481981741F00E5F1F4F0E151F05ED
:10031000B1F780E090E00FC09A85F80185819813CD
:10032000F3CF61E070E081E090E00E941906019750
:1003300059F785E090E0DF91CF911F910F91FF90E9
:10034000EF900895FF920F931F93CF93DF93CDB754
:10035000DEB7E6970FB6F894DEBF0FBECDBF8C01B7
:1003600061E070E083E090E00E94EA06F82E62E02F
:1003700070E085E090E00E94EA06DE0111969E01A1
:10038000275E3F4FFD0198E014969C9314971596B5
:100390009C9315975D961C921E925C971296A217DD
:1003A000B30791F7F9828A831C821B821EAA1DAAB9
:1003B00086E3D80101900D928A95E1F7C801E6968F
:1003C0000FB6F894DEBF0FBECDBFDF91CF911F9166
:1003D0000F91FF900895AF92BF92CF92DF92EF926C
:1003E000FF920F931F93CF93DF93CDB7DEB785E0D6
:1003F000E82EF12C97E0C92ED12C5E0185E2A80EE3
:10040000B11C0E940A10B7010E94610F082F0E94C0
:100410000A10B6010E94610F182F2D853E85FE013E
:100420003D9680E090E04481041303C04581141799
:1004300031F0021721F0131711F081E090E03296AD
:10044000EA15FB0581F7892BE1F261E0C8010E9402
:10045000BA0AC801DF91CF911F910F91FF90EF90E1
:10046000DF90CF90BF90AF9008950F931F93CF93DD
:10047000DF93CDB7DEB78C018BAD9CAD813091059C
:1004800021F589859A859CA38BA3009729F48F81F8
:100490008B8788858F5F14C08230910529F48F8106
:1004A0008B87888581500CC08130910519F48F812C
:1004B000815004C0039729F48F818F5F8B878885D3
:1004C0008C8761E08B859C85C5C0029708F4CBC002
:1004D000FE01379681E090E02681283009F0BDC00A
:1004E0002781283009F0B9C09C0121503109FC0155
:1004F0003D96EE0FFF1F47E050E04C0F5D1FE40FED
:10050000F51F40815181DC011E96AA0FBB1F67E0D9
:1005100070E06C0F7D1FA60FB71F4D935C93608139
:100520007181AC014E5F5F4F6115710511F5FC01E2
:100530003196EE0FFF1FA7E0B0E0AC0FBD1FEA0F32
:10054000FB1F6081FA01EE0FFF1FEA0FFB1F6083A4
:10055000880F991FFD01E80FF91F220F331FA7E035
:10056000B0E0AC0FBD1FA20FB31F15968C918F5F2B
:1005700028C06230710539F5FC013196EE0FFF1F7E
:1005800067E070E06C0F7D1FE60FF71F6081FA01D6
:10059000EE0FFF1FA7E0B0E0AC0FBD1FEA0FFB1F7F
:1005A0006083880F991FFD01E80FF91F220F331F89
:1005B000A7E0B0E0AC0FBD1FA20FB31F15968C9142
:1005C000815085833CC06130710591F4DA01AA0F36
:1005D000BB1F67E070E06C0F7D1FA60FB71FFC010B
:1005E0003196EE0FFF1FE60FF71F6081615014C0B8
:1005F0006330710521F5DA01AA0FBB1F67E070E0D7
:100600006C0F7D1FA60FB71FFC013196EE0FFF1F69
:10061000E60FF71F60816F5F6C93220F331FE7E0D7
:10062000F0E0EC0FFD1FE20FF31F2581880F991FEB
:10063000E7E0F0E0EC0FFD1FE80FF91F2583440F02
:10064000551FE7E0F0E0EC0FFD1FE40FF51F61E040
:10065000808191810E94BA0A06C0019632968C3040
:10066000910509F039CF86E3FE013796D801019054
:100670000D928A95E1F7C801DF91CF911F910F91FB
:1006800008952F923F924F925F926F927F928F9236
:100690009F92AF92BF92CF92DF92EF92FF920F9311
:1006A0001F93CF93DF93CDB7DEB7C257D1090FB6F3
:1006B000F894DEBF0FBECDBF8C010E943F0ACE0171
:1006C00001960E94A2019DA98EA90230110559F040
:1006D0000330110581F44DEC242E4CEC342E432CC8
:1006E0004EE3542E10C03AE9232E39E9332E432C21
:1006F0003EE3532E08C02DEC222E2CEC322E2CE49F
:10070000422E2EE3522E549A5C98569A5E9A539A31
:100710005B9A092F182FE12CF12C21E030E0E396B1
:100720003FAF2EAFE397812C912CA12C90E4B92EF2
:10073000C12CD12CE3968EAD9FADE397892B79F038
:100740000E94A20A0E94D3090E94840C81E00E94A8
:10075000A109882309F464C081E090E072C01EAB57
:100760000DAB2DB73EB7265331090FB6F8943EBFF7
:100770000FBE2DBFADB7BEB7119686E3FE01319611
:1007800001900D928A95E1F70E945601AF969FAFB6
:100790008EAFAF970FB6F894DEBF0FBECDBF2DB7AB
:1007A0003EB7265331090FB6F8943EBF0FBE2DBF9A
:1007B000ADB7BEB7119686E3FE01319601900D925A
:1007C0008A95E1F70E9470010FB6F894DEBF0FBE64
:1007D000CDBFAF962EAD3FADAF972530310519F0A7
:1007E000059709F0ADCF8DB79EB7C6970FB6F894B1
:1007F0009EBF0FBE8DBFADB7BEB7119686E3FE019B
:10080000319601900D928A95E1F70E9497060FB6F6
:10081000F894DEBF0FBECDBF019709F091CF4AC15A
:1008200082E00E94A109882329F022E030E03C8385
:100830002B8311C083E00E94A109882329F083E063
:1008400090E09C838B8307C080E00E94A1098823ED
:1008500029F01C821B82EE24E394F12C9FEFC91A2D
:10086000D90AB6010D2C000C880B990B0E94720E50
:10087000E1966CAF7DAF8EAF9FAFE197A50194017C
:1008800060E070E088E493E40E94FE0D9B01AC01FF
:10089000E1966CAD7DAD8EAD9FADE1970E94FE0EF1
:1008A00018166CF4EA94EF2841F08BB130E18327FD
:1008B0008BB98BB190E489278BB9E12CF12CA50180
:1008C000940160E070E086E993E40E94FE0D9B01D4
:1008D000AC01E1966CAD7DAD8EAD9FADE1970E9410
:1008E000FE0E18165CF51EAB0DAB2DB73EB72653AA
:1008F00031090FB6F8943EBF0FBE2DBFADB7BEB7DE
:10090000119686E3FE01319601900D928A95E1F7EA
:10091000CE01C7960E94660086E3FE01F796DE01CF
:10092000119601900D928A95E1F70FB6F894DEBF0B
:100930000FBECDBF0DA91EA9C12CD12CE3962EADA3
:100940003FADE3972130310511F51EAB0DAB8DB7EF
:100950009EB7C6970FB6F8949EBF0FBE8DBFADB7BA
:10096000BEB7119686E3FE01319601900D928A95ED
:10097000E1F70E94EB01782E692E0FB6F894DEBFE6
:100980000FBECDBFE3961FAE1EAEE397D3CE8981D7
:100990008711F8CF8A818611F5CF0E948C080E94BA
:1009A00076050E9491051EAB0DAB8DB79EB7C6971D
:1009B0000FB6F8949EBF0FBE8DBFADB7BEB71196F0
:1009C00086E3FE01319601900D928A95E1F70E942F
:1009D000EB01782E692E0FB6F894DEBF0FBECDBFA7
:1009E00060E00E94BA0A61E0872D962D0E94BA0A43
:1009F0000F5F1F4F1EAB0DAB8DB79EB7C6970FB6DF
:100A0000F8949EBF0FBE8DBFADB7BEB7119686E3FB
:100A1000FE01319601900D928A95E1F7CE01C796BD
:100A20000E94350286E3FE01F796DE0111960190E1
:100A30000D928A95E1F70DA91EA9A2019101C501A8
:100A4000B4010E94920D4B015C018BB198E08927A3
:100A50008BB90FB6F894DEBF0FBECDBF0C301105B9
:100A600009F090CF61E070E082E090E00E9419060A
:100A7000019719F00CE010E085CF1EAB0DAB8DB7E0
:100A80009EB7C6970FB6F8949EBF0FBE8DBFADB789
:100A9000BEB7119686E3FE01319601900D928A95BC
:100AA000E1F70E9497060FB6F894DEBF0FBECDBFE8
:100AB000019701F785E090E0CE58DF4F0FB6F8942C
:100AC000DEBF0FBECDBFDF91CF911F910F91FF9081
:100AD000EF90DF90CF90BF90AF909F908F907F90DE
:100AE0006F905F904F903F902F90089540E051E0BD
:100AF00060E27EE48CE793E00E94490D90939D03B1
:100B000080939C03569A5E98089580919C039091DF
:100B10009D030E943A0D882311F05E9A08955E9815
:100B2000089520919C0330919D0344E15DE064E6CB
:100B300070E083E893E00E946F0890939B0380939A
:100B40009A0368EC0E94660769E871E080919A0355
:100B500090919B030C944C0720919C0330919D0332
:100B600044E15DE064E670E083E893E00E946F0892
:100B700090939B0380939A0368EC0E94660763E658
:100B800071E080919A0390919B030C944C07209103
:100B90009C0330919D0344E15DE064E670E083E8EE
:100BA00093E00E946F0890939B0380939A0368ECF4
:100BB0000E94660760E571E080919A0390919B0323
:100BC0000C944C0720919C0330919D0344E15DE01F
:100BD00064E670E083E893E00E946F0890939B03C3
:100BE00080939A0368EC0E94660761E471E080914B
:100BF0009A0390919B030C944C0780919A039091D7
:100C00009B030C9476078CE291E00E94000D83E92F
:100C100091E00E947F0C84E10E946F0C81E090E0E3
:100C20000E94750C81E090E00E947A0C80E090E0D8
:100C300008950F931F93CF93DF93EC018B0181E015
:100C400090E00E94750C0E94640B0E94030620979E
:100C500019F484EB92E00AC0C130D10519F48EED8D
:100C600092E004C0229721F480E193E00E94600C9E
:100C70000E943F0A8CE291E00E948D0A0E94A20A23
:100C80000E94840C0E94D30901301105B9F784E059
:100C90000E94A109882391F381E090E0DF91CF9138
:100CA0001F910F910895CF93DF930E94640B0E94D0
:100CB000030680E090E00E94750C8CE493E00E94B3
:100CC000600CC1E0D0E00E94A20A0E94840C0E9445
:100CD000D30980E00E94A109882361F0C330D105C7
:100CE00061F3219779F48FE493E00E94600CC2E0F5
:100CF000D0E0E9CF82E00E94A109882369F0C130E9
:100D0000D10539F482E593E00E94600CC3E0D0E0A5
:100D1000DACF229741F7D1CF84E00E94A10988233E
:100D200091F20E94640BCE01DF91CF910895CF9391
:100D3000DF93CDB7DEB70E94030680E090E00E940B
:100D4000750C0E94640BE9ADFAADED30F10560F56C
:100D5000E65CFF4F0C94940F85E593E023C088E593
:100D600093E020C08BE593E01DC08EE593E01AC0B0
:100D700081E693E017C084E693E014C087E693E031
:100D800011C08AE693E00EC08DE693E00BC080E7C9
:100D900093E008C083E793E005C086E793E002C0D4
:100DA00089E793E00E94600C0E943F0A8CE291E088
:100DB0000E948D0A0E94A20A0E94840C0E94D309FC
:100DC00084E00E94A1098823A9F381E090E0DF91EB
:100DD000CF9108950F931F93CF93DF93EC018B0175
:100DE0000E940A10BE01601B710B6F5F7F4F0E9453
:100DF000610F800F911FDF91CF911F910F91089587
:100E00000E948C080E943F0A8CE291E00E94000D33
:100E10008FE092E00E947F0C84EF91E00E948D0AA7
:100E200061E070E080E090E00E941906019741F4D3
:100E30000E94640B0E9453060E944103059719F01B
:100E400080E090E0089585E090E00895FC018589B8
:100E5000968960EF70E00E94300F9C018685648562
:100E600070E090E00E94300FBC01660F771F660FA4
:100E7000771FC9010E944D0F63830895CF93DF93BD
:100E8000EC01E989FA8940E06D858B899C89099597
:100E90001D86DF91CF910895CF93DF93EC01788782
:100EA0006F837E836D831A8619861B8684E0888B08
:100EB0008C87CE010E942607CE010E943E07198230
:100EC000188281E08A83DF91CF910895FC016687C3
:100ED0000C942607FC016787089521E0FC018581B9
:100EE0009681892B09F420E0822F0895EF92FF92DA
:100EF0000F931F93CF93DF93EC010D811E8101159A
:100F0000110509F4E5C088819981009779F001976E
:100F100099838883892B09F0DBC0CE01DF91CF91C3
:100F20001F910F91FF90EF900C943E078A818823C8
:100F300009F4CEC081508A838111CAC0F801A08112
:100F4000A11104C0CE010E943E07C0C0F80141813A
:100F5000433211F0319602C0F801329620812B32D3
:100F600011F02D3211F4319601C020E030E080E024
:100F70008F017F019FEFE91AF90A908150ED590F17
:100F80005A3040F46AE00E94270F8053890F31E005
:100F9000F701EECFAE33F1F094F4AA3209F446C073
:100FA0002CF4A03209F092C0E12C66C0AA3331F1D2
:100FB000AC3309F08BC0FA87E9871B86BFCFA83412
:100FC00034F4A1340CF03FC0A034A9F17FC0AB359C
:100FD000C1F07CC02B852F5F2B87811101C082E07F
:100FE000022E000C330B90E0281739070CF0A6CF27
:100FF00009851A850115110509F0A0CF0F81188503
:101000009DCF2B85022E000C330B90E00197281703
:10101000390709F493CF8F018191882309F48ECF8A
:101020008B3509F48BCF8E33B1F788CF882309F441
:1010300085CF8C8704C0882309F480CF8E87CE01AA
:101040000E9426077BCF0A2E000CBB0BA65BBD4F70
:101050009C91433209F49F5F3111888B2B3211F43C
:10106000945F03C02D3209F49C5088898F5F6CE037
:101070000E94270FE82EE90E61E08F0180813196F2
:101080008F3211F46F5FF9CFF62EFF0CFF0C8E320A
:1010900029F48F2D8695F80E8F0104C08C3211F43F
:1010A0008F01F694E989FA894F856E2D8B899C8989
:1010B0000995ED862C812A838B816F2D70E090E05D
:1010C0000E94300F821B9109998388831E830D83B0
:1010D000DF91CF911F910F91FF90EF900895FC0148
:1010E000CB01768B658B528B418B348B238B24E623
:1010F0002787158611821082128262E370E00E94B7
:10110000300F68EE73E00E944D0F648384E08487A3
:1011100088EC8687CF010895E1E6F0E080E88083DF
:101120001082A89584B7877F84BFE0E6F0E08081D5
:1011300088618083108208951092800084E08093FB
:10114000810010928500109284000895809184009F
:10115000909185000895AC01809184009091850064
:101160009C01241B350B283E3340B0F70895209195
:10117000840030918500820F931F0C94AB0885305A
:1011800098F4673088F421E030E001C0220F6A95BE
:10119000EAF7E82FF0E0E156FC4F922F909580811E
:1011A00089234111822B80830895853080F4673034
:1011B00070F421E030E001C0220F6A95EAF7E82FD1
:1011C000F0E0E156FC4F8081282381E009F480E0C3
:1011D000089560919E03E62FF0E0E156FC4F808178
:1011E0000E94370980919E038F5F853018F48093A9
:1011F0009E03089510929E030895EFE9F3E0108294
:10120000118212821382148208950E9415090C948F
:10121000FD089C01FC01FF2784A1832B84A395A1D9
:10122000892F832B85A381E00895CF93DF93CCE9A9
:10123000D2E0899199910E94090982E0CA3AD807BF
:10124000C1F783E090E40E94090980E090E80E94E1
:10125000090983E090E10E94090983E090E80E9477
:10126000090983E090E2DF91CF910C940909E091A4
:10127000A403F0E0EE0FFF1FEE56FD4F20813181F9
:10128000F901FF2795A1932B95A3ECE9F2E097E0F4
:1012900020813181D901BB2795962C91959780FFAC
:1012A00003C03095232301C0232B95962C9386955C
:1012B000915032969111ECCFE62FF0E0EE0FFF1F28
:1012C000EE56FD4F80819181FC01FF2785A190950D
:1012D000892385A36093A40308956230710519F1F1
:1012E00070F46130710559F5FC01FF2724A1392FF5
:1012F0003095922F932394A385A183231DC063303F
:10130000710541F064307105D1F4FC01FF2784A11F
:10131000892B0FC0FC01FF2784A1892B84A385A101
:101320009095892309C0FC01FF2784A1292F2095CE
:10133000822384A385A1892B85A381E0089580E081
:101340000895E82FF0E0EE0FFF1FEB55FC4F808172
:10135000882321F0918181E0892702C080E090E01C
:1013600081700895E82FF0E0EE0FFF1FEB55FC4F62
:101370008081811102C0818102C080E090E0817093
:101380000895E82FF0E0EE0FFF1FEB55FC4F808132
:101390000895E82FF0E0EE0FFF1FEB55FC4F908112
:1013A00081E0892708957F928F929F92AF92BF929A
:1013B000CF92DF92EF92FF920F931F93CF93DF9321
:1013C000C5EAD3E05AEAC52E52E0D52E66E0762E65
:1013D00088818983F601019111916F015801BB2425
:1013E000F50124A1E12EFF2485A190E08E219F210B
:1013F00030E02E213F21232B31F0892B51F433E0B3
:10140000832E912C0DC0892B41F488248394912C38
:1014100007C094E0892E912C03C082E0882E912C85
:1014200064E070E0C8010E946D0962E070E0C801EC
:101430000E946D09872D8A95F1F7F50183A190E04F
:10144000E822F92281E0EF2809F080E08883B401E6
:10145000C8010E946D092296F3E0CF3ADF0709F038
:10146000B7CFDF91CF911F910F91FF90EF90DF9059
:10147000CF90BF90AF909F908F907F9008950895E8
:10148000009789F0FC012381621B67FD09C0062ECD
:10149000000C770B248130E081E0621773070CF0B9
:1014A00080E08170089580E00895CF93DF93FC0180
:1014B000892B79F18181481760F59281291748F5C8
:1014C0009381A62FA91BA7FD24C00A2E000CBB0BDD
:1014D000C481D0E0AC17BD07E4F4622F0E94270F4F
:1014E000480F858190E0BD010E94300F0696242FA1
:1014F000269526952695E80FF91FE20FF11D8081AC
:1015000090E0477002C0959587954A95E2F7817003
:1015100001C080E0DF91CF910895CF93DF93EC017C
:101520000E949C089E0140E050E062E17AE780E082
:1015300090E00E94750F3093B2032093B103DF91C6
:10154000CF9108958091AF039091B0030E94AB08B2
:101550002091AF033091B0038091B1039091B20319
:10156000820F931F9093B0038093AF030895692F68
:101570000C94D50841E0611101C040E0692F0C9442
:10158000BF080C94BA0A5F926F927F928F929F92DB
:10159000AF92BF92CF92DF92EF92FF920F931F9381
:1015A000CF93DF93562E872E942E5C01E62EF72ED6
:1015B000C62F660FDD0BC81BD10987FDD395072FFA
:1015C000770F110B091B110997FD1395D7FF03C066
:1015D00077247A9402C07724739417FF03C066249B
:1015E0006A9402C066246394D7FF03C0D195C19565
:1015F000D10917FF03C0119501951109C017D10733
:10160000A4F06E01D594C794F92EA51411F1692D9B
:101610008A2D9F2D0E94BA0AC01AD10AD7FE03C094
:10162000CC0EDD1EF60CA70CF0CF6801D594C79444
:10163000E82EB81471F0692D8E2D9B2D0E94BA0AE8
:10164000CC1ADD0AD7FE03C0C00ED11EE70CB60CC3
:10165000F0CF692DC701DF91CF911F910F91FF90BE
:10166000EF90DF90CF90BF90AF909F908F907F9042
:101670006F905F900C94BA0AFF920F931F93CF93D1
:10168000DF93D82FF92E162FC72F042F792F0E9402
:10169000C30A402F6D2F7C2F8D2F9F2D0E94C30AD0
:1016A000402F612F7C2F812F9F2D0E94C30A402F36
:1016B000612F7C2F8D2F9C2F0E94C30ADF91CF9129
:1016C0001F910F91FF9008950E94FD08ECE0F1E05A
:1016D000118A14860895DF92EF92FF920F931F9361
:1016E000CF93DF93D82E7B01162F0F2D80910E0103
:1016F00090910F01D0E0019799F50F2D0D1BE0910E
:101700001401F09115018181C0E0D817B8F48091DF
:10171000140190911501FC012281C21768F42C2F4D
:101720004D2F6D2D0E94550A682F8E2D8C0F902FF6
:101730000E94BA0ACF5FEBCFDF5FDFCFE0911401E9
:10174000F09115018281C81740F460E08E2D8C0F56
:10175000902F0E94BA0ACF5FF1CF015030C0DF5FF7
:101760001E2D1D0FE0911401F09115018181C0E043
:10177000D817A8F48091140190911501FC012281E1
:10178000C21768F72C2F4D2F6D2D0E94550A682F18
:10179000812F9F2D9C0F0E94BA0ACF5FEBCFE09163
:1017A0001401F09115018281C81740F460E0812F87
:1017B0009F2D9C0F0E94BA0ACF5FF1CF1F5F812F30
:1017C000902FDF91CF911F910F91FF90EF90DF90BD
:1017D00008950F931F93CF938C01C0E0F80181917E
:1017E0008F01882341F00E946B0BBC01CF5F8530D5
:1017F00014F477FFF3CF8C2FCF911F910F910895A1
:101800000F931F93CF93DF93109218014093190108
:1018100010921C0100911401109115010115110580
:1018200009F449C09B01EC01F8018181609112012A
:101830007091130190E00E94300FBC01809116015D
:10184000909117010E944D0FCB016AE070E00E9459
:10185000300F90931B0180931A0130931101209354
:10186000100140E250E0BE018DE191E00E941A10AB
:1018700080910C0190910D010197E9F4FE01019016
:101880000020E9F73197BF016C1B7D0BF8018181C6
:101890008F5F0E94270F815020910E0130910F0120
:1018A0002130310511F095E001C097E0981718F448
:1018B0008EEF80931C01DF91CF911F910F910895BE
:1018C00020910E0130910F012130310511F070E0AF
:1018D00001C076E04FEF60E00E94000C089590E0B8
:1018E0009093130180931201089590930D018093BA
:1018F0000C01089590930F0180930E010895909329
:1019000015018093140108958091B3039091B4035D
:1019100001969093B4038093B30320911A01309100
:101920001B018217930708F469C01092B403109248
:10193000B303E0911801F0E0E45FFE4F818981116B
:101940000AC080911901823008F458C081508093F8
:101950001901109218018091180190E0FC01E45FD8
:10196000FE4F2189222309F449C040910C01509176
:101970000D0120911C014115510521F04130510507
:1019800099F024C0211122C06091100170911101C1
:10199000835E9E4F0E94E90B90E0019790911801A1
:1019A000890F8093180112C060911001709111018C
:1019B00040910E0150910F014130510511F4720F09
:1019C00001C0621B835E9E4F0E94E90B80911C0147
:1019D0008F5F80931C01082E000C990BE09114017D
:1019E000F0911501218130E0281739073CF410925D
:1019F0001C01809118018F5F809318010C94E908F5
:101A0000CF93DF93CCE0D1E09B878A870E940509C2
:101A100084E190E09F838E83DF91CF910C94640BDF
:101A2000FC01618342830895FC01662311F041119A
:101A300003C01182128208956832D8F028ED260F73
:101A4000822F6CE00E94410F982F64EF0E94270FB5
:101A5000820FA581B681A80FB11D8C91915010F015
:101A60008695FCCF8183642F70E090E00E94300F58
:101A700092830895FC0180818F5F80839181891713
:101A800008F0108281E020819281291708F080E01F
:101A90000895FC0174836383568345831182128207
:101AA0000895182F092FF62E0E949C080E94A60860
:101AB000C12FD02F8E819F810E94AB08E881F981D0
:101AC0008A819B8109952E813F818C819D81820F26
:101AD000931F9F838E830E94A608BC01E12FF02FE5
:101AE0004FEF5FEF90E09F1529F326813781DB01EF
:101AF000A21BB30B9D012F3FBFE73B0710F4EF0183
:101B0000D9CF3195219531092417350710F4A90152
:101B1000EF019F5F3896E7CF0E943F0A0E940007BF
:101B2000FDCF5058BB27AA270E94A90D0C94C40EC4
:101B30000E94B60E38F00E94BD0E20F039F49F3F8F
:101B400019F426F40C94B30E0EF4E095E7FB0C9414
:101B5000AD0EE92F0E94D50E58F3BA17620773072E
:101B60008407950720F079F4A6F50C94F70E0EF48F
:101B7000E0950B2EBA2FA02D0B01B90190010C019D
:101B8000CA01A0011124FF27591B99F0593F50F4B5
:101B9000503E68F11A16F040A22F232F342F44270D
:101BA000585FF3CF469537952795A795F040539505
:101BB000C9F77EF41F16BA0B620B730B840BBAF0D5
:101BC0009150A1F0FF0FBB1F661F771F881FC2F740
:101BD0000EC0BA0F621F731F841F48F48795779554
:101BE0006795B795F7959E3F08F0B0CF9395880F0E
:101BF00008F09927EE0F9795879508950E94120E89
:101C00000C94C40E0E94BD0E58F00E94B60E40F017
:101C100029F45F3F29F00C94AD0E51110C94F80E8D
:101C20000C94B30E0E94D50E68F39923B1F355239B
:101C300091F3951B550BBB27AA27621773078407DF
:101C400038F09F5F5F4F220F331F441FAA1FA9F375
:101C500035D00E2E3AF0E0E832D091505040E69563
:101C6000001CCAF72BD0FE2F29D0660F771F881FC4
:101C7000BB1F261737074807AB07B0E809F0BB0BB7
:101C8000802DBF01FF2793585F4F3AF09E3F5105CB
:101C900078F00C94AD0E0C94F80E5F3FE4F3983E90
:101CA000D4F3869577956795B795F7959F5FC9F7B4
:101CB000880F911D9695879597F90895E1E0660F35
:101CC000771F881FBB1F621773078407BA0720F0AE
:101CD000621B730B840BBA0BEE1F88F7E095089517
:101CE000E89409C097FB3EF49095809570956195B6
:101CF0007F4F8F4F9F4F9923A9F0F92F96E9BB276C
:101D00009395F695879577956795B795F111F8CFE7
:101D1000FAF4BB0F11F460FF1BC06F5F7F4F8F4F52
:101D20009F4F16C0882311F096E911C0772321F048
:101D30009EE8872F762F05C0662371F096E8862FE0
:101D400070E060E02AF09A95660F771F881FDAF737
:101D5000880F9695879597F9089597F99F6780E87A
:101D600070E060E008959FEF80EC089500240A94ED
:101D70001616170618060906089500240A94121666
:101D80001306140605060895092E0394000C11F499
:101D9000882352F0BB0F40F4BF2B11F460FF04C046
:101DA0006F5F7F4F8F4F9F4F089557FD9058440F9F
:101DB000551F59F05F3F71F04795880F97FB991FAA
:101DC00061F09F3F79F08795089512161306140667
:101DD000551FF2CF4695F1DF08C0161617061806F4
:101DE000991FF1CF86957105610508940895E894CF
:101DF000BB2766277727CB0197F908950E94030F29
:101E000008F48FEF0895990F0008550FAA0BE0E82A
:101E1000FEEF16161706E807F907C0F012161306AC
:101E2000E407F50798F0621B730B840B950B39F4EC
:101E30000A2661F0232B242B252B21F408950A2652
:101E400009F4A140A6958FEF811D811D08950024FE
:101E500080FD060E660F11F08695D1F7802D08954E
:101E60000024552704C0080E591F880F991F00979A
:101E700029F076956795B8F37105B9F7802D952F00
:101E80000895991B79E004C0991F961708F0961BD6
:101E9000881F7A95C9F780950895AA1BBB1B51E14D
:101EA00007C0AA1FBB1FA617B70710F0A61BB70BCA
:101EB000881F991F5A95A9F780959095BC01CD016F
:101EC000089597FB072E16F4009407D077FD09D0EC
:101ED0000E944D0F07FC05D03EF4909581959F4FD1
:101EE0000895709561957F4F0895052E97FB1EF418
:101EF00000940E948C0F57FD07D00E949A0F07FC98
:101F000003D04EF40C948C0F50954095309521954C
:101F10003F4F4F4F5F4F0895909580957095619515
:101F20007F4F8F4F9F4F0895EE0FFF1F0590F49145
:101F3000E02D0994A1E21A2EAA1BBB1BFD010DC0C6
:101F4000AA1FBB1FEE1FFF1FA217B307E407F50769
:101F500020F0A21BB30BE40BF50B661F771F881F45
:101F6000991F1A9469F760957095809590959B01DB
:101F7000AC01BD01CF0108958F929F92AF92BF92A5
:101F8000CF92DF92EF92FF92CF93DF93EC016881C3
:101F900079818A819B81611571058105910521F403
:101FA00064E279ED8BE597E02DE133EF41E050E01D
:101FB0000E94750F49015A0127EA31E440E050E0E0
:101FC0000E9429106B017C012CEE34EF4FEF5FEF84
:101FD000C501B4010E942910DC01CB018C0D9D1DAF
:101FE000AE1DBF1DB7FF03C00197A109B04888838C
:101FF0009983AA83BB839F77DF91CF91FF90EF9066
:10200000DF90CF90BF90AF909F908F9008950E94E7
:10201000BC0F08958DE391E00E94BC0F0895A0E0ED
:10202000B0E080933D0190933E01A0933F01B093B7
:1020300040010895FB01DC014150504048F00190FF
:102040000D920020C9F701C01D9241505040E0F7A9
:102050000895EE27FF27AA27BB2708C0A20FB31FAA
:10206000E41FF51F220F331F441F551F96958795B8
:102070007795679598F37040A9F7009799F7BD0198
:08208000CF010895F894FFCF91
:10208800F3E5D8CCC1B6ACA29990888100000000D5
:102098000000140000000000000000000000000024
:1020A8000000000000000000000000000000000028
:1020B8000000000000000000000000000001000017
:1020C80000403138302A38434343202020203E0046
:1020D800403138302A384747464741472F2020208B
:1020E800203E00403138302A3842344235463544A3
:1020F8003542352F46354435433543364736453620
:1021080043362F202020203E0046474841202020EB
:10211800203E00010305203B0200009220EB737D66
:102128005FDE3DA552EA7A14004A222229BA2ED04F
:10213800050014C0010020A4126A2B9A74A372A38C
:1021480038ED498F38CE2AA712AA2AAE49100410B2
:10215800145444380E11152A250000EA5BEB3A4F57
:10216800726B3BCF73CF134F7AED5B9774247B5D13
:10217800564972FD5B6F5B6F7BEF136F7FEF57CE36
:102188003897246D7B6D2BED5FAD5AAD24A7720196
:102198000305203B0200009220EB737D5FDE3DA526
:1021A80052EA7A14004A222229BA2ED0050014C015
:1021B800010020A4126A2B9A74A372A338ED498FE8
:1021C80038CE2AA712AA2AAE49100410145444384B
:1021D8000E11152A250000EA5BEB3A4F726B3BCFD4
:1021E80073CF134F7AED5B9774247B5D564972FD6C
:1021F8005B6F5B6F7BEF136F7FEF57CE3897246D64
:102208007B6D2BED5FAD5AAD24A772090B0002045C
:1022180005070340008003100380032000400020CE
:10222800001000080004000200010380034003209E
:1022380000800310534E414B4520534E414B4520DF
:10224800534E414B4520534E414B4520534E414B35
:102258004520534E414B4520534E414B4500474185
:102268004D45204F5645522047414D45204F564534
:10227800522047414D45204F5645522047414D4534
:10228800204F5645522047414D45204F5645520054
:1022980057454C4C20504C415945442057454C4CCF
:1022A80020504C415945442057454C4C20504C41F6
:1022B8005945442057454C4C20504C4159454420E1
:1022C80057454C4C20504C41594544004C31004C2A
:1022D80032004C33003030003031003032003033BF
:1022E80000303400303500303600303700303800E8
:0C22F8003039003130003131003132004B
:00000001FF
