:100000000C943A000C9457000C9457000C94570031
:100010000C9457000C9457000C9457000C94570004
:100020000C9457000C9457000C9457000C945700F4
:100030000C9457000C9457000C9457000C945700E4
:100040000C9457000C9457000C9457000C945700D4
:100050000C9457000C9457000C9457000C945700C4
:100060000C9457000C9457000C9457000C945700B4
:100070000C94570011241FBECFEFD4E0DEBFCDBFDC
:1000800011E0A0E0B1E0E6E8F3E102C005900D92D6
:10009000A83FB107D9F722E0A8EFB1E001C01D9257
:1000A000AF30B207E1F70E948A070C94C1090C94A3
:1000B00000008CE291E00E947A0785E391E00E94C3
:1000C000F90684E10E94E90681E090E00E94EF06D3
:1000D00081E090E00E94F40680E090E008950F93A4
:1000E0001F93CF93DF93EC018B0181E090E00E949E
:1000F000EF060E94DE050E945900209719F483ED57
:1001000091E00AC0C130D10519F489ED91E004C035
:10011000229721F483EE91E00E94DA060E94B9044E
:100120008CE291E00E9407050E941C050E94FE06D9
:100130000E944D0401301105B9F784E00E941B04B0
:10014000882391F381E090E0DF91CF911F910F918F
:100150000895CF93DF930E94DE050E94590080E04E
:1001600090E00E94EF068FEE91E00E94DA06C1E077
:10017000D0E00E941C050E94FE060E944D0480E013
:100180000E941B04882361F0C330D10561F32197DD
:1001900079F482EF91E00E94DA06C2E0D0E0E9CF84
:1001A00082E00E941B04882369F0C130D10539F434
:1001B00085EF91E00E94DA06C3E0D0E0DACF229723
:1001C00041F7D1CF84E00E941B04882391F20E9462
:1001D000DE05CE01DF91CF9108950F931F93CF934A
:1001E000DF93EC018B010E948909BE01601B710B3A
:1001F0006F5F7F4F0E94E608800F911FDF91CF91C4
:100200001F910F910895CF93DF93CDB7DEB729A942
:100210003AA92F5F3F4F3AAB29AB2EE2FE0135964C
:10022000DC0101900D922A95E1F7DF91CF910895BD
:10023000EF92FF920F931F93CF93DF93CDB7DEB76B
:100240007C0109851A8560E089859A850E943405BC
:100250008B859C858130910551F038F08230910575
:1002600041F0039739F4015005C0115003C00F5FEE
:1002700001C01F5F09871A8761E089859A850E94FE
:1002800034058EE2FE013996D70101900D928A95D0
:10029000E1F7C701DF91CF911F910F91FF90EF9090
:1002A0000895CF93DF93CDB7DEB78D81853018F4F5
:1002B0008E81873040F061E070E081E090E00E9444
:1002C0006F00019719F080E090E002C085E090E0B7
:1002D000DF91CF910895EF92FF920F931F93CF93E9
:1002E000DF93CDB7DEB78E01075F1F4F7E018DE133
:1002F000E80EF11C9985F8018481981741F00E5F92
:100300001F4F0E151F05B1F780E090E00FC09A85D2
:10031000F80185819813F3CF61E070E081E090E00F
:100320000E946F00019759F785E090E0DF91CF912F
:100330001F910F91FF90EF900895AF92BF92CF92CF
:10034000DF92EF92FF920F931F93CF93DF93CDB77E
:10035000DEB785E0E82EF12C97E0C92ED12C5E01A6
:1003600081E2A80EB11C0E948909B7010E94E6082B
:10037000082F0E948909B6010E94E608182F2D85D2
:100380003E85FE013D9680E090E04481041303C069
:100390004581141731F0021721F0131711F081E095
:1003A00090E03296EA15FB0581F7892BE1F261E0D6
:1003B000C8010E943405C801DF91CF911F910F91B0
:1003C000FF90EF90DF90CF90BF90AF900895FF9295
:1003D0000F931F93CF93DF93CDB7DEB7AE970FB6D2
:1003E000F894DEBF0FBECDBF8C010E94890965E085
:1003F00070E00E94E608F82E0E94890967E070E02C
:100400000E94E608DE0111969E012B5E3F4FFD0122
:1004100098E014969C93149759961C921E925897A4
:100420001296A217B307A9F7F9828A831C821B824E
:1004300081E090E09EA78DA78EE2D80101900D92F9
:100440008A95E1F7C801AE960FB6F894DEBF0FBEED
:10045000CDBFDF91CF911F910F91FF900895CF9362
:10046000DF93CDB7DEB7CC55D1090FB6F894DEBF18
:100470000FBECDBF8C010E94B904CE0101960E942F
:10048000E7010230110549F00330110569F4C12C70
:10049000D12CE12C50E4F52E0DC0C12CD12C40EE16
:1004A000E42E4FE3F42E06C0C12CD12C30ECE32E09
:1004B0003FE3F32E83E0282E312C92E0A92EB12CBD
:1004C00088248394912C00E010E00E941C050E9477
:1004D0004D040E94FE0681E00E941B04882319F04F
:1004E0009C828B8217C082E00E941B04882319F033
:1004F000BC82AB820FC083E00E941B04882319F0EA
:100500003C822B8207C080E00E941B04882311F0EC
:100510001C821B820F5F1F4FB801012E000C880B3D
:10052000990B0E9403082B013C01A701960160E092
:1005300070E086E993E40E948F079B01AC01C30140
:10054000B2010E948F0818160CF0BFCF8DB79EB76E
:100550008E970FB6F8949EBF0FBE8DBFADB7BEB7D6
:1005600011968EE2FE01319601900D928A95E1F787
:10057000CE018F960E9418018EE2FE01BF96DE0129
:10058000119601900D928A95E1F78DB79EB78E96E0
:100590000FB6F894DEBF0FBECDBF8E970FB6F8949E
:1005A0009EBF0FBE8DBFADB7BEB711968EE2FE01E6
:1005B000319601900D928A95E1F70E949D010FB648
:1005C000F894DEBF0FBECDBF7ECF0E9406030E940F
:1005D000B9048CE291E00E947A0785E391E00E94E1
:1005E000F90684EF91E00E94070561E070E080E089
:1005F00090E00E946F00019731F40E94DE050E9496
:10060000A9000E942F0280E090E00895E1E6F0E06A
:1006100080E880831082A89584B7877F84BFE0E656
:10062000F0E08081886180831082089510928000BC
:1006300084E08093810010928500109284000895D8
:1006400080918400909185000895AC018091840090
:10065000909185009C01241B350B283E3340B0F758
:1006600008952091840030918500820F931F0C948F
:100670002503853098F4673088F421E030E001C02C
:10068000220F6A95EAF7E82FF0E0E750FE4F922F2D
:100690009095808189234111822B80830895853034
:1006A00080F4673070F421E030E001C0220F6A95D9
:1006B000EAF7E82FF0E0E750FE4F8081282381E041
:1006C00009F480E008956091F801E62FF0E0E7502A
:1006D000FE4F80810E94B1038091F8018F5F8530C9
:1006E00018F48093F80108951092F8010895E9EF45
:1006F000F1E01082118212821382148208950E9406
:100700008F030C9477039C01FC01FF2784A1832BAA
:1007100084A395A1892F832B85A381E00895CF938E
:10072000DF93CBEBD1E0899199910E94830381E023
:10073000C93CD807C1F783E090E40E94830380E0BE
:1007400090E80E94830383E090E10E94830383E0AA
:1007500090E80E94830383E090E2DF91CF910C94B4
:100760008303E091FE01F0E0EE0FFF1FEF54FE4F18
:1007700020813181F901FF2795A1932B95A3EBEB04
:10078000F1E097E020813181D901BB2795962C912A
:10079000959780FF03C03095232301C0232B9596A6
:1007A0002C938695915032969111ECCFE62FF0E084
:1007B000EE0FFF1FEF54FE4F80819181FC01FF2758
:1007C00085A19095892385A36093FE0108956230E9
:1007D000710519F170F46130710559F5FC01FF27BD
:1007E00024A1392F3095922F932394A385A183239D
:1007F0001DC06330710541F064307105D1F4FC0116
:10080000FF2784A1892B0FC0FC01FF2784A1892B1E
:1008100084A385A19095892309C0FC01FF2784A1A9
:10082000292F2095822384A385A1892B85A381E08C
:10083000089580E00895E82FF0E0EE0FFF1FE150EB
:10084000FE4F8081882321F0918181E0892702C0B9
:1008500080E090E081700895E82FF0E0EE0FFF1F38
:10086000E150FE4F8081811102C0818102C080E091
:1008700090E081700895E82FF0E0EE0FFF1FE15047
:10088000FE4F80810895E82FF0E0EE0FFF1FE1504A
:10089000FE4F908181E0892708957F928F929F92E9
:1008A000AF92BF92CF92DF92EF92FF920F931F937E
:1008B000CF93DF93CFEFD1E059ECC52E51E0D52E89
:1008C00066E0762E88818983F601019111916F018E
:1008D0005801BB24F50124A1E12EFF2485A190E05D
:1008E0008E219F2130E02E213F21232B31F0892BB7
:1008F00051F433E0832E912C0DC0892B41F48824D0
:100900008394912C07C094E0892E912C03C082E03F
:10091000882E912C64E070E0C8010E94E70362E039
:1009200070E0C8010E94E703872D8A95F1F7F50171
:1009300083A190E0E822F92281E0EF2809F080E02D
:100940008883B401C8010E94E7032296F2E0C9300F
:10095000DF0709F0B7CFDF91CF911F910F91FF9083
:10096000EF90DF90CF90BF90AF909F908F907F904F
:1009700008950895009789F0FC012381621B67FDAB
:1009800009C0062E000C770B248130E081E062174D
:1009900073070CF080E08170089580E00895CF9394
:1009A000DF93FC01892B79F18181481760F59281F1
:1009B000291748F59381A62FA91BA7FD24C00A2E4D
:1009C000000CBB0BC481D0E0AC17BD07E4F4622F70
:1009D0000E94B808480F858190E0BD010E94C108BF
:1009E0000696242F269526952695E80FF91FE20FE7
:1009F000F11D808190E0477002C0959587954A95DA
:100A0000E2F7817001C080E0DF91CF910895CF932C
:100A1000DF93EC010E9416039E0140E050E062E18A
:100A20007AE780E090E00E94FA0830930C0220936D
:100A30000B02DF91CF9108958091090290910A02F3
:100A40000E9425032091090230910A0280910B0235
:100A500090910C02820F931F90930A0280930902D7
:100A60000895692F0C944F0341E0611101C040E0EB
:100A7000692F0C9439030C9434055F926F927F9226
:100A80008F929F92AF92BF92CF92DF92EF92FF929E
:100A90000F931F93CF93DF93562E872E942E5C01D6
:100AA000E62EF72EC62F660FDD0BC81BD10987FD7A
:100AB000D395072F770F110B091B110997FD13957C
:100AC000D7FF03C077247A9402C07724739417FF6A
:100AD00003C066246A9402C066246394D7FF03C0EF
:100AE000D195C195D10917FF03C011950195110941
:100AF000C017D107A4F06E01D594C794F92EA514A0
:100B000011F1692D8A2D9F2D0E943405C01AD10A3A
:100B1000D7FE03C0CC0EDD1EF60CA70CF0CF68018B
:100B2000D594C794E82EB81471F0692D8E2D9B2DA5
:100B30000E943405CC1ADD0AD7FE03C0C00ED11EB8
:100B4000E70CB60CF0CF692DC701DF91CF911F9153
:100B50000F91FF90EF90DF90CF90BF90AF909F905C
:100B60008F907F906F905F900C943405FF920F935D
:100B70001F93CF93DF93D82FF92E162FC72F042F53
:100B8000792F0E943D05402F6D2F7C2F8D2F9F2D9B
:100B90000E943D05402F612F7C2F812F9F2D0E94A9
:100BA0003D05402F612F7C2F8D2F9C2F0E943D05EE
:100BB000DF91CF911F910F91FF9008950E947703CD
:100BC000E0E0F1E0118A14860895DF92EF92FF923F
:100BD0000F931F93CF93DF93D82E7B01162F0F2DEA
:100BE0008091020190910301D0E0019799F50F2DBA
:100BF0000D1BE0910801F09109018181C0E0D81737
:100C0000B8F48091080190910901FC012281C2177A
:100C100068F42C2F4D2F6D2D0E94CF04682F8E2D40
:100C20008C0F902F0E943405CF5FEBCFDF5FDFCFBB
:100C3000E0910801F09109018281C81740F460E059
:100C40008E2D8C0F902F0E943405CF5FF1CF015075
:100C500030C0DF5F1E2D1D0FE0910801F0910901EA
:100C60008181C0E0D817A8F4809108019091090112
:100C7000FC012281C21768F72C2F4D2F6D2D0E9489
:100C8000CF04682F812F9F2D9C0F0E943405CF5FCA
:100C9000EBCFE0910801F09109018281C81740F47F
:100CA00060E0812F9F2D9C0F0E943405CF5FF1CF14
:100CB0001F5F812F902FDF91CF911F910F91FF9098
:100CC000EF90DF9008950F931F93CF938C01C0E0B6
:100CD000F80181918F01882341F00E94E505BC0154
:100CE000CF5F853014F477FFF3CF8C2FCF911F9116
:100CF0000F9108950F931F93CF93DF9310920C01E0
:100D000040930D011092100100910801109109010A
:100D10000115110509F449C09B01EC01F80181811D
:100D2000609106017091070190E00E94C108BC012A
:100D300080910A0190910B010E94D208CB016AE0D8
:100D400070E00E94C10890930F0180930E013093D0
:100D500005012093040140E250E0BE0181E191E0F1
:100D60000E94990980910001909101010197E9F495
:100D7000FE0101900020E9F73197BF016C1B7D0B4C
:100D8000F80181818F5F0E94B80881502091020193
:100D9000309103012130310511F095E001C097E059
:100DA000981718F48EEF80931001DF91CF911F9167
:100DB0000F910895209102013091030121303105F6
:100DC00011F070E001C076E04FEF60E00E947A061B
:100DD000089590E090930701809306010895909301
:100DE0000101809300010895909303018093020113
:100DF00008959093090180930801089580910D0250
:100E000090910E02019690930E0280930D02209114
:100E10000E0130910F018217930708F469C01092F8
:100E20000E0210920D02E0910C01F0E0E050FF4F35
:100E3000818981110AC080910D01823008F458C067
:100E4000815080930D0110920C0180910C0190E073
:100E5000FC01E050FF4F2189222309F449C0409151
:100E6000000150910101209110014115510521F01F
:100E70004130510599F024C0211122C06091040134
:100E8000709105018F5E9E4F0E94630690E001976E
:100E900090910C01890F80930C0112C060910401A4
:100EA00070910501409102015091030141305105BB
:100EB00011F4720F01C0621B8F5E9E4F0E94630689
:100EC000809110018F5F80931001082E000C990B08
:100ED000E0910801F0910901218130E028173907DC
:100EE0003CF41092100180910C018F5F80930C01F3
:100EF0000C946303CF93DF93C0E0D1E09B878A8794
:100F00000E947F0384E190E09F838E83DF91CF91E5
:100F10000C94DE050E94B9040E94E502FDCF0E94F8
:100F2000A3070C9455080E944E0858F00E944708E9
:100F300040F029F45F3F29F00C943E0851110C94C5
:100F400089080C9444080E94660868F39923B1F359
:100F5000552391F3951B550BBB27AA2762177307DF
:100F6000840738F09F5F5F4F220F331F441FAA1F73
:100F7000A9F335D00E2E3AF0E0E832D0915050402F
:100F8000E695001CCAF72BD0FE2F29D0660F771FDD
:100F9000881FBB1F261737074807AB07B0E809F0C3
:100FA000BB0B802DBF01FF2793585F4F3AF09E3F48
:100FB000510578F00C943E080C9489085F3FE4F3E7
:100FC000983ED4F3869577956795B795F7959F5F8B
:100FD000C9F7880F911D9695879597F90895E1E0D7
:100FE000660F771F881FBB1F621773078407BA0736
:100FF00020F0621B730B840BBA0BEE1F88F7E09591
:101000000895E89409C097FB3EF4909580957095FB
:1010100061957F4F8F4F9F4F9923A9F0F92F96E944
:10102000BB279395F695879577956795B795F111B9
:10103000F8CFFAF4BB0F11F460FF1BC06F5F7F4F56
:101040008F4F9F4F16C0882311F096E911C0772368
:1010500021F09EE8872F762F05C0662371F096E871
:10106000862F70E060E02AF09A95660F771F881F40
:10107000DAF7880F9695879597F9089597F99F67FE
:1010800080E870E060E008959FEF80EC0895002410
:101090000A941616170618060906089500240A94DD
:1010A00012161306140605060895092E0394000C63
:1010B00011F4882352F0BB0F40F4BF2B11F460FFF2
:1010C00004C06F5F7F4F8F4F9F4F089557FD90581B
:1010D000440F551F59F05F3F71F04795880F97FBFC
:1010E000991F61F09F3F79F08795089512161306B6
:1010F0001406551FF2CF4695F1DF08C016161706E5
:101100001806991FF1CF8695710561050894089519
:10111000E894BB2766277727CB0197F908950E94AB
:10112000940808F48FEF0895990F0008550FAA0B43
:10113000E0E8FEEF16161706E807F907C0F01216EA
:101140001306E407F50798F0621B730B840B950BED
:1011500039F40A2661F0232B242B252B21F4089542
:101160000A2609F4A140A6958FEF811D811D0895DF
:10117000002480FD060E660F11F08695D1F7802DB4
:1011800008950024552704C0080E591F880F991F81
:10119000009729F076956795B8F37105B9F7802D1A
:1011A000952F0895AA1BBB1B51E107C0AA1FBB1FA7
:1011B000A617B70710F0A61BB70B881F991F5A95E3
:1011C000A9F780959095BC01CD01089597FB072E56
:1011D00016F4009407D077FD09D00E94D20807FCCE
:1011E00005D03EF4909581959F4F08957095619537
:1011F0007F4F0895052E97FB1EF400940E9411095D
:1012000057FD07D00E94190907FC03D04EF40C9437
:10121000110950954095309521953F4F4F4F5F4FA5
:10122000089590958095709561957F4F8F4F9F4F52
:101230000895A1E21A2EAA1BBB1BFD010DC0AA1F17
:10124000BB1FEE1FFF1FA217B307E407F50720F02F
:10125000A21BB30BE40BF50B661F771F881F991FAA
:101260001A9469F760957095809590959B01AC01F3
:10127000BD01CF0108958F929F92AF92BF92CF92FE
:10128000DF92EF92FF92CF93DF93EC016881798137
:101290008A819B81611571058105910521F464E2C4
:1012A00079ED8BE597E02DE133EF41E050E00E94CE
:1012B000FA0849015A0127EA31E440E050E00E946F
:1012C000A8096B017C012CEE34EF4FEF5FEFC501F5
:1012D000B4010E94A809DC01CB018C0D9D1DAE1D3F
:1012E000BF1DB7FF03C00197A109B0488883998348
:1012F000AA83BB839F77DF91CF91FF90EF90DF9020
:10130000CF90BF90AF909F908F9008950E943B091F
:10131000089581E391E00E943B090895A0E0B0E0C8
:101320008093310190933201A0933301B093340143
:101330000895FB01DC014150504048F001900D92AE
:101340000020C9F701C01D9241505040E0F70895B8
:10135000EE27FF27AA27BB2708C0A20FB31FE41F51
:10136000F51F220F331F441F551F969587957795BC
:10137000679598F37040A9F7009799F7BD01CF01E1
:061380000895F894FFCF70
:101386000000000000001400000000000000000043
:101396000000000000000000000000000000000047
:1013A6000000000000000000000000000000000037
:1013B6000001000000010305203B0200009220EB23
:1013C600737D5FDE3DA552EA7A14004A222229BACD
:1013D6002ED0050014C0010020A4126A2B9A74A313
:1013E60072A338ED498F38CE2AA712AA2AAE491021
:1013F6000410145444380E11152A250000EA5BEB3C
:101406003A4F726B3BCF73CF134F7AED5B977424D1
:101416007B5D564972FD5B6F5B6F7BEF136F7FEFF2
:1014260057CE3897246D7B6D2BED5FAD5AAD24A753
:101436007203400080031003800320004000200058
:10144600100008000400020001038003400320008E
:10145600800310534E414B450047414D45204F56A2
:1014660045520057454C4C20504C41594544004C80
:0814760031004C32004C330040
:00000001FF
