:100000000C943A000C9457000C9457000C94570031
:100010000C9457000C9457000C9457000C94570004
:100020000C9457000C9457000C9457000C945700F4
:100030000C9457000C9457000C9457000C945700E4
:100040000C9457000C9457000C9457000C945700D4
:100050000C9457000C9457000C9457000C945700C4
:100060000C9457000C9457000C9457000C945700B4
:100070000C94570011241FBECFEFD4E0DEBFCDBFDC
:1000800011E0A0E0B1E0ECE0F9E102C005900D92D2
:10009000A83FB107D9F722E0A8EFB1E001C01D9257
:1000A000AF30B207E1F70E94E0090C94840C0C9485
:1000B00000008CE291E00E94D00985E391E00E946B
:1000C0004F0984E10E943F0981E090E00E944509C8
:1000D00081E090E00E944A0980E090E008950F934B
:1000E0001F93CF93DF93EC018B0181E090E00E949E
:1000F00045090E9434080E945900209719F483EDA5
:1001000091E00AC0C130D10519F489ED91E004C035
:10011000229721F483EE91E00E9430090E940F079C
:100120008CE291E00E945D070E9472070E945409D0
:100130000E94A30601301105B9F784E00E94710600
:10014000882391F381E090E0DF91CF911F910F918F
:100150000895CF93DF930E9434080E94590080E0F5
:1001600090E00E9445098FEE91E00E943009C1E0C5
:10017000D0E00E9472070E9454090E94A30680E00A
:100180000E947106882361F0C330D10561F3219785
:1001900079F482EF91E00E943009C2E0D0E0E9CF2B
:1001A00082E00E947106882369F0C130D10539F4DC
:1001B00085EF91E00E943009C3E0D0E0DACF2297CA
:1001C00041F7D1CF84E00E947106882391F20E940A
:1001D0003408CE01DF91CF9108950F931F93CF93F1
:1001E000DF93EC018B010E944C0CBE01601B710B74
:1001F0006F5F7F4F0E94A90B800F911FDF91CF91FE
:100200001F910F910895AF92BF92CF92DF92EF921C
:10021000FF920F931F93CF93DF93CDB7DEB75C01AF
:100220000D851E8560E08D859E850E948A078F85DD
:1002300098898130910551F038F08230910541F074
:10024000039739F4015005C0115003C00F5F01C07E
:100250001F5FCE010D966C01E12CF12CF60184811B
:10026000883091F48581883079F4F7013296EE0F69
:10027000FF1F8DE090E08C0F9D1FE80FF91F61E0DC
:10028000808191810E948A079FEFE91AF90AE2E0D2
:10029000CE0ED11CFAE0EF16F10401F70D871E8790
:1002A00061E08D859E850E948A078EE2FE013D9663
:1002B000D50101900D928A95E1F7C501DF91CF91AB
:1002C0001F910F91FF90EF90DF90CF90BF90AF9074
:1002D0000895CF93DF93CDB7DEB78D81853018F4C5
:1002E0008E81873040F061E070E081E090E00E9414
:1002F0006F00019719F080E090E002C085E090E087
:10030000DF91CF910895EF92FF920F931F93CF93B8
:10031000DF93CDB7DEB78E01075F1F4F7E018DE102
:10032000E80EF11C9985F8018481981741F00E5F61
:100330001F4F0E151F05B1F780E090E00FC09A85A2
:10034000F80185819813F3CF61E070E081E090E0DF
:100350000E946F00019759F785E090E0DF91CF91FF
:100360001F910F91FF90EF900895FF920F931F93AD
:10037000CF93DF93CDB7DEB7AE970FB6F894DEBF5D
:100380000FBECDBF8C010E944C0C65E070E00E9456
:10039000A90BF82E0E944C0C67E070E00E94A90B9C
:1003A000DE0111969E012B5E3F4FFD0198E01496F1
:1003B0009C93149715969C93159759961C921E9290
:1003C00058971296A217B30791F7F9828A831C8275
:1003D0001B821EA61DA68EE2D80101900D928A9561
:1003E000E1F7C801AE960FB6F894DEBF0FBECDBFE1
:1003F000DF91CF911F910F91FF900895AF92BF921F
:10040000CF92DF92EF92FF920F931F93CF93DF93E0
:10041000CDB7DEB785E0E82EF12C97E0C92ED12CC0
:100420005E0181E2A80EB11C0E944C0CB7010E9433
:10043000A90B082F0E944C0CB6010E94A90B182F83
:100440002D853E85FE013D9680E090E044810413B9
:1004500003C04581141731F0021721F0131711F072
:1004600081E090E03296EA15FB0581F7892BE1F2F5
:1004700061E0C8010E948A07C801DF91CF911F91F6
:100480000F91FF90EF90DF90CF90BF90AF900895C5
:100490000F931F93CF93DF93CDB7DEB78C018BA95A
:1004A0009CA98130910521F589859A8598A38F8F24
:1004B000009729F48F818B8788858F5F14C08230E5
:1004C000910529F48F818B87888581500CC08130FC
:1004D000910519F48F81815004C0039729F48F810D
:1004E0008F5F8B8788858C8761E08B859C85C5C0F5
:1004F000029708F4CBC0FE01379681E090E0268198
:10050000283009F0BDC02781283009F0B9C09C010E
:1005100021503109FC013B96EE0FFF1F47E050E0F0
:100520004C0F5D1FE40FF51F40815181DC011C96CB
:10053000AA0FBB1F67E070E06C0F7D1FA60FB71FEF
:100540004D935C9360817181AC014E5F5F4F61158B
:10055000710511F5FC013196EE0FFF1FA7E0B0E029
:10056000AC0FBD1FEA0FFB1F6081FA01EE0FFF1FEA
:10057000EA0FFB1F6083880F991FFD01E80FF91F29
:10058000220F331FA7E0B0E0AC0FBD1FA20FB31FB7
:1005900015968C918F5F28C06230710539F5FC018A
:1005A0003196EE0FFF1F67E070E06C0F7D1FE60FC6
:1005B000F71F6081FA01EE0FFF1FA7E0B0E0AC0F5C
:1005C000BD1FEA0FFB1F6083880F991FFD01E80F15
:1005D000F91F220F331FA7E0B0E0AC0FBD1FA20F21
:1005E000B31F15968C91815085833CC06130710595
:1005F00091F4DA01AA0FBB1F67E070E06C0F7D1F5A
:10060000A60FB71FFC013196EE0FFF1FE60FF71F75
:100610006081615014C06330710521F5DA01AA0FC1
:10062000BB1F67E070E06C0F7D1FA60FB71FFC01BA
:100630003196EE0FFF1FE60FF71F60816F5F6C931F
:10064000220F331FE7E0F0E0EC0FFD1FE20FF31F76
:100650002581880F991FE7E0F0E0EC0FFD1FE80F00
:10066000F91F2583440F551FE7E0F0E0EC0FFD1F55
:10067000E40FF51F61E0808191810E948A0706C026
:10068000019632968A30910509F039CF8EE2FE014B
:100690003796D80101900D928A95E1F7C801DF9154
:1006A000CF911F910F9108952F923F924F925F9299
:1006B0006F927F928F929F92AF92BF92CF92DF9272
:1006C000EF92FF920F931F93CF93DF93CDB7DEB7D7
:1006D000C456D1090FB6F894DEBF0FBECDBF7C0162
:1006E0000E940F07CE0101960E94B5011DA50EA51F
:1006F00022E0E216F10469F033E0E316F10491F42C
:100700005DEC452E5CEC552E5CE4652E5EE3752EAB
:1007100011C047EE442E4BEF542E49E2642E4EE3B7
:10072000742E08C037E2432E31E3532E38E0632E97
:100730003EE3732E22242394312C812C912C20EE25
:10074000A22E2FE3B22EE12CF12C6F961FAE1EAE1F
:100750006F970E9472070E94A3060E94540981E0CD
:100760000E947106882319F081E090E011C082E0B8
:100770000E947106882329F022E030E03C832B831D
:1007800011C083E00E947106882329F083E090E085
:100790009C838B8307C080E00E947106882311F040
:1007A0001C821B829FEFE91AF90AB7010F2C000C7B
:1007B000880B990B0E94C60AA3966CAF7DAF8EAFD3
:1007C0009FAFA397A501940160E070E08AE793E4EE
:1007D0000E94520A9B01AC01A3966CAD7DAD8EAD1B
:1007E0009FADA3970E94520B18160CF4CCC023287F
:1007F00009F487C022242394312C6F968EAD9FADCF
:100800006F97019709F0A5CF60E0A4968FADA497EC
:10081000A5969FADA5970E948A0797CF89818D11D4
:1008200005C19A819C1103C160E08D2D9C2D0E9411
:100830008A0761E08D2D9C2D0E948A073FEFE31A05
:10084000F30AA3019201C501B4010E94E6094B011C
:100850005C01A496DFAEA497A596CFAEA5978AE0DB
:10086000E816F10409F4D8C0FEA6EDA62DB73EB7F0
:100870002E5231090FB6F8943EBF0FBE2DBFADB753
:10088000BEB711968EE2FE01319601900D928A95C7
:10089000E1F7CE018F960E9448028EE2FE01BF96DC
:1008A000DE01119601900D928A95E1F71DA50EA526
:1008B0000FB6F894DEBF0FBECDBF2DB73EB72E5298
:1008C00031090FB6F8943EBF0FBE2DBFADB7BEB70E
:1008D00011968EE2FE01319601900D928A95E1F714
:1008E0000E94FE01C92E0FB6F894DEBF0FBECDBF29
:1008F00021E030E06F963FAF2EAF6F97D82EE12CFE
:10090000F12C1DA70EA72DB73EB72E5231090FB6F9
:10091000F8943EBF0FBE2DBFADB7BEB711968EE2A5
:10092000FE01319601900D928A95E1F70E946901CE
:100930001C010FB6F894DEBF0FBECDBF2DB73EB77A
:100940002E5231090FB6F8943EBF0FBE2DBFADB782
:10095000BEB711968EE2FE01319601900D928A95F6
:10096000E1F70E9483010FB6F894DEBF0FBECDBF42
:1009700035E02316310409F45DC0059709F45AC027
:10098000212C312C3ACF1DA70EA72DB73EB72E52E2
:1009900031090FB6F8943EBF0FBE2DBFADB7BEB73D
:1009A00011968EE2FE01319601900D928A95E1F743
:1009B000CE018F960E9403018EE2FE01BF96DE01FA
:1009C000119601900D928A95E1F7EDA4FEA40FB661
:1009D000F894DEBF0FBECDBF2A94232809F01ECFA6
:1009E0002DB73EB72E5231090FB6F8943EBF0FBE59
:1009F0002DBFADB7BEB711968EE2FE0131960190C4
:100A00000D928A95E1F70E94FE01C92E0FB6F89467
:100A1000DEBF0FBECDBF0BC061E070E082E090E0B2
:100A20000E946F00029709F01FCF04C08D2D1E2D6C
:100A30000F2D64CF85E090E0CC59DF4F0FB6F894CE
:100A4000DEBF0FBECDBFDF91CF911F910F91FF9001
:100A5000EF90DF90CF90BF90AF909F908F907F905E
:100A60006F905F904F903F902F9008950E945C058B
:100A70000E940F078CE291E00E94D00985E391E08B
:100A80000E944F0984EF91E00E945D0761E070E0F1
:100A900080E090E00E946F00019741F40E943408CA
:100AA0000E94A9000E945403059719F080E090E08D
:100AB000089585E090E00895E1E6F0E080E8808325
:100AC0001082A89584B7877F84BFE0E6F0E080813C
:100AD00088618083108208951092800084E0809362
:100AE0008100109285001092840008958091840006
:100AF000909185000895AC018091840090918500CB
:100B00009C01241B350B283E3340B0F708952091FB
:100B1000840030918500820F931F0C947B058530F3
:100B200098F4673088F421E030E001C0220F6A9524
:100B3000EAF7E82FF0E0E750FE4F922F9095808182
:100B400089234111822B80830895853080F467309A
:100B500070F421E030E001C0220F6A95EAF7E82F37
:100B6000F0E0E750FE4F8081282381E009F480E027
:100B700008956091F801E62FF0E0E750FE4F808184
:100B80000E9407068091F8018F5F853018F48093EA
:100B9000F80108951092F8010895E9EFF1E010824C
:100BA000118212821382148208950E94E5050C942A
:100BB000CD059C01FC01FF2784A1832B84A395A173
:100BC000892F832B85A381E00895CF93DF93CBEB0F
:100BD000D1E0899199910E94D90581E0C93CD8075B
:100BE000C1F783E090E40E94D90580E090E80E947C
:100BF000D90583E090E10E94D90583E090E80E9446
:100C0000D90583E090E2DF91CF910C94D905E09172
:100C1000FE01F0E0EE0FFF1FEF54FE4F2081318107
:100C2000F901FF2795A1932B95A3EBEBF1E097E05A
:100C300020813181D901BB2795962C91959780FF12
:100C400003C03095232301C0232B95962C938695C2
:100C5000915032969111ECCFE62FF0E0EE0FFF1F8E
:100C6000EF54FE4F80819181FC01FF2785A1909573
:100C7000892385A36093FE0108956230710519F1FF
:100C800070F46130710559F5FC01FF2724A1392F5B
:100C90003095922F932394A385A183231DC06330A5
:100CA000710541F064307105D1F4FC01FF2784A186
:100CB000892B0FC0FC01FF2784A1892B84A385A168
:100CC0009095892309C0FC01FF2784A1292F209535
:100CD000822384A385A1892B85A381E0089580E0E8
:100CE0000895E82FF0E0EE0FFF1FE150FE4F8081E6
:100CF000882321F0918181E0892702C080E090E083
:100D000081700895E82FF0E0EE0FFF1FE150FE4FD5
:100D10008081811102C0818102C080E090E08170F9
:100D20000895E82FF0E0EE0FFF1FE150FE4F8081A5
:100D30000895E82FF0E0EE0FFF1FE150FE4F908185
:100D400081E0892708957F928F929F92AF92BF9200
:100D5000CF92DF92EF92FF920F931F93CF93DF9387
:100D6000CFEFD1E059ECC52E51E0D52E66E0762EBE
:100D700088818983F601019111916F015801BB248B
:100D8000F50124A1E12EFF2485A190E08E219F2171
:100D900030E02E213F21232B31F0892B51F433E019
:100DA000832E912C0DC0892B41F488248394912C9F
:100DB00007C094E0892E912C03C082E0882E912CEC
:100DC00064E070E0C8010E943D0662E070E0C80186
:100DD0000E943D06872D8A95F1F7F50183A190E0E9
:100DE000E822F92281E0EF2809F080E08883B4014D
:100DF000C8010E943D062296F2E0C930DF0709F0E3
:100E0000B7CFDF91CF911F910F91FF90EF90DF90BF
:100E1000CF90BF90AF909F908F907F90089508954E
:100E2000009789F0FC012381621B67FD09C0062E33
:100E3000000C770B248130E081E0621773070CF01F
:100E400080E08170089580E00895CF93DF93FC01E6
:100E5000892B79F18181481760F59281291748F52E
:100E60009381A62FA91BA7FD24C00A2E000CBB0B43
:100E7000C481D0E0AC17BD07E4F4622F0E947B0B65
:100E8000480F858190E0BD010E94840B0696242FB7
:100E9000269526952695E80FF91FE20FF11D808112
:100EA00090E0477002C0959587954A95E2F781706A
:100EB00001C080E0DF91CF910895CF93DF93EC01E3
:100EC0000E946C059E0140E050E062E17AE780E01C
:100ED00090E00E94BD0B30930C0220930B02DF9137
:100EE000CF9108958091090290910A020E947B059A
:100EF0002091090230910A0280910B0290910C021C
:100F0000820F931F90930A02809309020895692F1C
:100F10000C94A50541E0611101C040E0692F0C94DB
:100F20008F050C948A075F926F927F928F929F92A7
:100F3000AF92BF92CF92DF92EF92FF920F931F93E7
:100F4000CF93DF93562E872E942E5C01E62EF72E3C
:100F5000C62F660FDD0BC81BD10987FDD395072F60
:100F6000770F110B091B110997FD1395D7FF03C0CC
:100F700077247A9402C07724739417FF03C0662401
:100F80006A9402C066246394D7FF03C0D195C195CB
:100F9000D10917FF03C0119501951109C017D10799
:100FA000A4F06E01D594C794F92EA51411F1692D02
:100FB0008A2D9F2D0E948A07C01AD10AD7FE03C02E
:100FC000CC0EDD1EF60CA70CF0CF6801D594C794AB
:100FD000E82EB81471F0692D8E2D9B2D0E948A0782
:100FE000CC1ADD0AD7FE03C0C00ED11EE70CB60C2A
:100FF000F0CF692DC701DF91CF911F910F91FF9025
:10100000EF90DF90CF90BF90AF909F908F907F90A8
:101010006F905F900C948A07FF920F931F93CF936A
:10102000DF93D82FF92E162FC72F042F792F0E9468
:101030009307402F6D2F7C2F8D2F9F2D0E9493079C
:10104000402F612F7C2F812F9F2D0E949307402FCF
:10105000612F7C2F8D2F9C2F0E949307DF91CF91C2
:101060001F910F91FF9008950E94CD05E0E0F1E0FF
:10107000118A14860895DF92EF92FF920F931F93C7
:10108000CF93DF93D82E7B01162F0F2D8091020175
:1010900090910301D0E0019799F50F2D0D1BE09180
:1010A0000801F09109018181C0E0D817B8F480915E
:1010B000080190910901FC012281C21768F42C2FCC
:1010C0004D2F6D2D0E942507682F8E2D8C0F902F90
:1010D0000E948A07CF5FEBCFDF5FDFCFE09108018F
:1010E000F09109018281C81740F460E08E2D8C0FC9
:1010F000902F0E948A07CF5FF1CF015030C0DF5F91
:101100001E2D1D0FE0910801F09109018181C0E0C1
:10111000D817A8F48091080190910901FC0122815F
:10112000C21768F72C2F4D2F6D2D0E942507682FB1
:10113000812F9F2D9C0F0E948A07CF5FEBCFE091FC
:101140000801F09109018281C81740F460E0812F05
:101150009F2D9C0F0E948A07CF5FF1CF1F5F812FC9
:10116000902FDF91CF911F910F91FF90EF90DF9023
:1011700008950F931F93CF938C01C0E0F8018191E4
:101180008F01882341F00E943B08BC01CF5F85306E
:1011900014F477FFF3CF8C2FCF911F910F91089507
:1011A0000F931F93CF93DF9310920C0140930D0187
:1011B000109210010091080110910901011511050B
:1011C00009F449C09B01EC01F8018181609106019D
:1011D0007091070190E00E94840BBC0180910A018C
:1011E00090910B010E94950BCB016AE070E00E9488
:1011F000840B90930F0180930E013093050120938F
:10120000040140E250E0BE0181E191E00E945C0CEB
:1012100080910001909101010197E9F4FE01019094
:101220000020E9F73197BF016C1B7D0BF80181812C
:101230008F5F0E947B0B815020910201309103014E
:101240002130310511F095E001C097E0981718F4AE
:101250008EEF80931001DF91CF911F910F91089530
:1012600020910201309103012130310511F070E02D
:1012700001C076E04FEF60E00E94D008089590E052
:101280009093070180930601089590930101809344
:1012900000010895909303018093020108959093B3
:1012A000090180930801089580910D0290910E022A
:1012B000019690930E0280930D0220910E013091C1
:1012C0000F018217930708F469C010920E02109262
:1012D0000D02E0910C01F0E0E050FF4F8189811197
:1012E0000AC080910D01823008F458C0815080936B
:1012F0000D0110920C0180910C0190E0FC01E05076
:10130000FF4F2189222309F449C0409100015091E7
:101310000101209110014115510521F04130510585
:1013200099F024C0211122C060910401709105013F
:101330008F5E9E4F0E94B90890E0019790910C013A
:10134000890F80930C0112C0609104017091050116
:1013500040910201509103014130510511F4720F87
:1013600001C0621B8F5E9E4F0E94B90880911001E0
:101370008F5F80931001082E000C990BE0910801FB
:10138000F0910901218130E0281739073CF41092CF
:10139000100180910C018F5F80930C010C94B905B2
:1013A000CF93DF93C0E0D1E09B878A870E94D50569
:1013B00084E190E09F838E83DF91CF910C94340879
:1013C0000E940F070E943605FDCF5058BB27AA2761
:1013D0000E94FD090C94180B0E940A0B38F00E9421
:1013E000110B20F039F49F3F19F426F40C94070BED
:1013F0000EF4E095E7FB0C94010BE92F0E94290BFA
:1014000058F3BA17620773078407950720F079F439
:10141000A6F50C944B0B0EF4E0950B2EBA2FA02DD5
:101420000B01B90190010C01CA01A0011124FF2791
:10143000591B99F0593F50F4503E68F11A16F0408C
:10144000A22F232F342F4427585FF3CF469537958B
:101450002795A795F0405395C9F77EF41F16BA0B50
:10146000620B730B840BBAF09150A1F0FF0FBB1FFE
:10147000661F771F881FC2F70EC0BA0F621F731F47
:10148000841F48F4879577956795B795F7959E3FA4
:1014900008F0B0CF9395880F08F09927EE0F979535
:1014A000879508950E94660A0C94180B0E94110BF0
:1014B00058F00E940A0B40F029F45F3F29F00C9489
:1014C000010B51110C944C0B0C94070B0E94290B2F
:1014D00068F39923B1F3552391F3951B550BBB2763
:1014E000AA2762177307840738F09F5F5F4F220FA8
:1014F000331F441FAA1FA9F335D00E2E3AF0E0E89F
:1015000032D091505040E695001CCAF72BD0FE2FE8
:1015100029D0660F771F881FBB1F2617370748077C
:10152000AB07B0E809F0BB0B802DBF01FF27935834
:101530005F4F3AF09E3F510578F00C94010B0C94EC
:101540004C0B5F3FE4F3983ED4F38695779567950F
:10155000B795F7959F5FC9F7880F911D9695879569
:1015600097F90895E1E0660F771F881FBB1F621788
:1015700073078407BA0720F0621B730B840BBA0B46
:10158000EE1F88F7E0950895E89409C097FB3EF4B4
:1015900090958095709561957F4F8F4F9F4F9923C0
:1015A000A9F0F92F96E9BB279395F695879577953E
:1015B0006795B795F111F8CFFAF4BB0F11F460FFFE
:1015C0001BC06F5F7F4F8F4F9F4F16C0882311F056
:1015D00096E911C0772321F09EE8872F762F05C06A
:1015E000662371F096E8862F70E060E02AF09A9505
:1015F000660F771F881FDAF7880F9695879597F9FA
:10160000089597F99F6780E870E060E008959FEF84
:1016100080EC089500240A94161617061806090689
:10162000089500240A941216130614060506089558
:10163000092E0394000C11F4882352F0BB0F40F4E0
:10164000BF2B11F460FF04C06F5F7F4F8F4F9F4F20
:10165000089557FD9058440F551F59F05F3F71F0A2
:101660004795880F97FB991F61F09F3F79F0879509
:101670000895121613061406551FF2CF4695F1DF92
:1016800008C0161617061806991FF1CF8695710522
:10169000610508940895E894BB2766277727CB0156
:1016A00097F908950E94570B08F48FEF0895990F4A
:1016B0000008550FAA0BE0E8FEEF16161706E8071C
:1016C000F907C0F012161306E407F50798F0621B3D
:1016D000730B840B950B39F40A2661F0232B242B12
:1016E000252B21F408950A2609F4A140A6958FEF31
:1016F000811D811D0895002480FD060E660F11F0E6
:101700008695D1F7802D08950024552704C0080E32
:10171000591F880F991F009729F076956795B8F3A0
:101720007105B9F7802D952F0895AA1BBB1B51E1B8
:1017300007C0AA1FBB1FA617B70710F0A61BB70B41
:10174000881F991F5A95A9F780959095BC01CD01E6
:10175000089597FB072E16F4009407D077FD09D063
:101760000E94950B07FC05D03EF4909581959F4F04
:101770000895709561957F4F0895052E97FB1EF48F
:1017800000940E94D40B57FD07D00E94DC0B07FC8D
:1017900003D04EF40C94D40B509540953095219580
:1017A0003F4F4F4F5F4F089590958095709561958D
:1017B0007F4F8F4F9F4F0895A1E21A2EAA1BBB1B8C
:1017C000FD010DC0AA1FBB1FEE1FFF1FA217B3070D
:1017D000E407F50720F0A21BB30BE40BF50B661F23
:1017E000771F881F991F1A9469F7609570958095E7
:1017F00090959B01AC01BD01CF0108958F929F92FE
:10180000AF92BF92CF92DF92EF92FF92CF93DF938E
:10181000EC01688179818A819B816115710581055F
:10182000910521F464E279ED8BE597E02DE133EF4A
:1018300041E050E00E94BD0B49015A0127EA31E422
:1018400040E050E00E946B0C6B017C012CEE34EF09
:101850004FEF5FEFC501B4010E946B0CDC01CB01BF
:101860008C0D9D1DAE1DBF1DB7FF03C00197A109C3
:10187000B04888839983AA83BB839F77DF91CF91F8
:10188000FF90EF90DF90CF90BF90AF909F908F90A0
:1018900008950E94FE0B089581E391E00E94FE0BE3
:1018A0000895A0E0B0E08093310190933201A093BD
:1018B0003301B09334010895FB01DC0141505040E5
:1018C00048F001900D920020C9F701C01D924150CF
:1018D0005040E0F70895EE27FF27AA27BB2708C04E
:1018E000A20FB31FE41FF51F220F331F441F551F04
:1018F000969587957795679598F37040A9F7009727
:0C19000099F7BD01CF010895F894FFCFC6
:10190C0000000000000014000000000000000000B7
:10191C0000000000000000000000000000000000BB
:10192C0000000000000000000000000000000000AB
:10193C000001000000010305203B0200009220EB97
:10194C00737D5FDE3DA552EA7A14004A222229BA41
:10195C002ED0050014C0010020A4126A2B9A74A387
:10196C0072A338ED498F38CE2AA712AA2AAE491095
:10197C000410145444380E11152A250000EA5BEBB0
:10198C003A4F726B3BCF73CF134F7AED5B97742446
:10199C007B5D564972FD5B6F5B6F7BEF136F7FEF67
:1019AC0057CE3897246D7B6D2BED5FAD5AAD24A7C8
:1019BC0072034000800310038003200040002000CD
:1019CC001000080004000200010380034003200003
:1019DC00800310534E414B450047414D45204F5617
:1019EC0045520057454C4C20504C41594544004CF5
:0819FC0031004C32004C3300B5
:00000001FF
