:100000000C9445000C9462000C9462000C94620005
:100010000C9462000C9462000C9462000C946200D8
:100020000C9462000C9462000C9462000C946200C8
:100030000C9462000C9462000C9462000C946200B8
:100040000C9462000C9462000C9462000C946200A8
:100050000C9462000C9462000C9462000C94620098
:100060000C9462000C9462000C9462000C94620088
:100070000C94620087038A038D0390039303960315
:1000800099039C039F03A203A50311241FBECFEF76
:10009000D4E0DEBFCDBF12E0A0E0B1E0E2E0FAE1E3
:1000A00002C005900D92A639B107D9F722E0A6E962
:1000B000B2E001C01D92AD3AB207E1F70E94550AC5
:1000C0000C94FF0C0C9400008CE291E00E94450A15
:1000D00085E391E00E94C40984E10E94B40981E0B3
:1000E00090E00E94BA0981E090E00E94BF0980E0A0
:1000F00090E008950F931F93CF93DF93EC018B0152
:1001000081E090E00E94BA090E94A9080E94640060
:10011000209719F483ED91E00AC0C130D10519F49C
:100120008DEF91E004C0229721F48FE292E00E94CB
:10013000A5090E9484078CE291E00E94D2070E94E8
:10014000E7070E94C9090E94180701301105B9F795
:1001500084E00E94E606882391F381E090E0DF913D
:10016000CF911F910F910895CF93DF930E94A9081B
:100170000E94640080E090E00E94BA098BE692E061
:100180000E94A509C1E0D0E00E94E7070E94C909CA
:100190000E94180780E00E94E606882361F0C330C1
:1001A000D10561F3219779F48EE692E00E94A509CA
:1001B000C2E0D0E0E9CF82E00E94E606882369F041
:1001C000C130D10539F481E792E00E94A509C3E06E
:1001D000D0E0DACF229741F7D1CF84E00E94E60643
:1001E000882391F20E94A908CE01DF91CF91089552
:1001F0000F931F93CF93DF93EC018B010E94C70CE9
:10020000BE01601B710B6F5F7F4F0E941E0C800F41
:10021000911FDF91CF911F910F9108956F927F925F
:100220008F929F92AF92BF92CF92DF92EF92FF9206
:100230000F931F93CF93DF93CDB7DEB74C0119898E
:100240000A89AD88BE8869A47AA4EB88FC8860E03E
:1002500089899A890E94FF0781E0E816F10479F004
:1002600058F082E0E816F10469F083E0E816F10442
:1002700081F4CC24CA940AC0DD24DA9405C0CC24CD
:10028000C39404C0DD24D394D00E04C0C10ED02E7C
:1002900002C0D02EC12E60E08D899E890E94FF078A
:1002A00088E0A81661F0B81651F01D8B0E8B61E046
:1002B0008D899E890E94FF073701B02EA12EC98A21
:1002C000DA8A61E089899A890E94FF07AD8ABE8A2D
:1002D00069A67AA68EE2FE017196D40101900D9274
:1002E0008A95E1F7C401DF91CF911F910F91FF90A3
:1002F000EF90DF90CF90BF90AF909F908F907F90C6
:100300006F900895CF93DF93CDB7DEB78D818530A1
:1003100018F48E81873040F061E070E081E090E079
:100320000E947A00019719F080E090E002C085E019
:1003300090E0DF91CF910895EF92FF920F931F937A
:10034000CF93DF93CDB7DEB78E01075F1F4F7E01DE
:100350008DE1E80EF11C9985F8018481981741F030
:100360000E5F1F4F0E151F05B1F780E090E00FC024
:100370009A85F80185819813F3CF61E070E081E000
:1003800090E00E947A00019759F785E090E0DF91B4
:10039000CF911F910F91FF90EF900895EF92FF92F0
:1003A0000F931F93CF93DF93CDB7DEB7AE970FB602
:1003B000F894DEBF0FBECDBF7C010E94C70C63E086
:1003C00070E00E941E0C8C010F5F1F4F0E94C70C33
:1003D00065E070E00E941E0C0196DE011196AE01F0
:1003E0004B5E5F4FFD0128E014962C9314971596F1
:1003F0002C93159759961C921E9258971296A417F3
:10040000B50791F709838A831C821B821EA61DA64D
:100410008EE2D70101900D928A95E1F7C701AE9661
:100420000FB6F894DEBF0FBECDBFDF91CF911F9105
:100430000F91FF90EF900895AF92BF92CF92DF920D
:10044000EF92FF920F931F93CF93DF93CDB7DEB759
:1004500085E0E82EF12C97E0C92ED12C5E0181E2D7
:10046000A80EB11C0E94C70CB7010E941E0C082FD9
:100470000E94C70CB6010E941E0C182F2D853E85C8
:10048000FE013D9680E090E04481041303C0458165
:10049000141731F0021721F0131711F081E090E0EA
:1004A0003296EA15FB0581F7892BE1F261E0C8017C
:1004B0000E94FF07C801DF91CF911F910F91FF901C
:1004C000EF90DF90CF90BF90AF9008950F931F9360
:1004D000CF93DF93CDB7DEB78C018BA99CA9813078
:1004E000910521F589859A8598A38F8F009729F426
:1004F0008F818B8788858F5F14C08230910529F4A6
:100500008F818B87888581500CC08130910519F4CB
:100510008F81815004C0039729F48F818F5F8B876F
:1005200088858C8761E08B859C85C5C0029708F41F
:10053000CBC0FE01379681E090E02681283009F09B
:10054000BDC02781283009F0B9C09C012150310974
:10055000FC013B96EE0FFF1F47E050E04C0F5D1F84
:10056000E40FF51F40815181DC011C96AA0FBB1FCF
:1005700067E070E06C0F7D1FA60FB71F4D935C9373
:1005800060817181AC014E5F5F4F6115710511F59E
:10059000FC013196EE0FFF1FA7E0B0E0AC0FBD1FCE
:1005A000EA0FFB1F6081FA01EE0FFF1FEA0FFB1F2E
:1005B0006083880F991FFD01E80FF91F220F331F79
:1005C000A7E0B0E0AC0FBD1FA20FB31F15968C9132
:1005D0008F5F28C06230710539F5FC013196EE0F4E
:1005E000FF1F67E070E06C0F7D1FE60FF71F608153
:1005F000FA01EE0FFF1FA7E0B0E0AC0FBD1FEA0F3E
:10060000FB1F6083880F991FFD01E80FF91F220F60
:10061000331FA7E0B0E0AC0FBD1FA20FB31F1596AC
:100620008C91815085833CC06130710591F4DA0171
:10063000AA0FBB1F67E070E06C0F7D1FA60FB71FEE
:10064000FC013196EE0FFF1FE60FF71F608161502E
:1006500014C06330710521F5DA01AA0FBB1F67E0F2
:1006600070E06C0F7D1FA60FB71FFC013196EE0FD7
:10067000FF1FE60FF71F60816F5F6C93220F331F20
:10068000E7E0F0E0EC0FFD1FE20FF31F2581880F7C
:10069000991FE7E0F0E0EC0FFD1FE80FF91F25833D
:1006A000440F551FE7E0F0E0EC0FFD1FE40FF51FCE
:1006B00061E0808191810E94FF0706C00196329619
:1006C0008A30910509F039CF8EE2FE013796D801C4
:1006D00001900D928A95E1F7C801DF91CF911F91AA
:1006E0000F910895CF93DF93CDB7DEB70E946400DA
:1006F00080E090E00E94BA090E94A908E9A9FAA93D
:10070000EB30F10530F5E65CFF4F0C94510C84E7BB
:1007100092E01DC087E792E01AC08AE792E017C016
:100720008DE792E014C080E892E011C083E892E087
:100730000EC086E892E00BC089E892E008C08CE821
:1007400092E005C08FE892E002C082E992E00E9448
:10075000A5090E9484078CE291E00E94D2070E94C2
:10076000E7070E94C9090E94180784E00E94E60674
:100770008823A9F381E090E0DF91CF9108952F9233
:100780003F924F925F926F927F928F929F92AF9221
:10079000BF92CF92DF92EF92FF920F931F93CF936E
:1007A000DF93CDB7DEB7C056D1090FB6F894DEBFE0
:1007B0000FBECDBF8C010E948407CE0101960E941E
:1007C000CE019DA58EA50230110559F0033011050B
:1007D00081F44DEC842E4CEC942EA92C4EE3B42ED7
:1007E00010C03AE9832E39E9932EA92C3EE3B32EAB
:1007F00008C02DEC822E2CEC922E2CE4A22E2EE39F
:10080000B22E492E582E01E010E0C12CD12CE12C43
:1008100080E4F82E612C712C0115110579F00E94ED
:10082000E7070E9418070E94C90981E00E94E606B6
:10083000882309F464C081E090E072C05EA64DA6F2
:100840002DB73EB72E5231090FB6F8943EBF0FBEFA
:100850002DBFADB7BEB711968EE2FE013196019065
:100860000D928A95E1F70E9482016F969FAF8EAF3D
:100870006F970FB6F894DEBF0FBECDBF2DB73EB752
:100880002E5231090FB6F8943EBF0FBE2DBFADB743
:10089000BEB711968EE2FE01319601900D928A95B7
:1008A000E1F70E949C010FB6F894DEBF0FBECDBFEA
:1008B0006F962EAD3FAD6F972530310519F0059736
:1008C00009F0ADCF8DB79EB78E970FB6F8949EBF47
:1008D0000FBE8DBFADB7BEB711968EE2FE01319649
:1008E00001900D928A95E1F70E9472030FB6F89479
:1008F000DEBF0FBECDBF019709F091CF10C182E0DE
:100900000E94E606882329F022E030E03C832B8316
:1009100011C083E00E94E606882329F083E090E07E
:100920009C838B8307C080E00E94E606882311F039
:100930001C821B829FEF691A790AB301072C000CF5
:10094000880B990B0E943B0BA1966CAF7DAF8EAFCD
:100950009FAFA197A701960160E070E086E993E45C
:100960000E94C70A9B01AC01A1966CAD7DAD8EAD16
:100970009FADA1970E94C70B18165CF55EA64DA609
:100980002DB73EB72E5231090FB6F8943EBF0FBEB9
:100990002DBFADB7BEB711968EE2FE013196019024
:1009A0000D928A95E1F7CE018F960E940E018EE29C
:1009B000FE01BF96DE01119601900D928A95E1F736
:1009C0000FB6F894DEBF0FBECDBF4DA45EA4612C60
:1009D000712C0130110501F55EA64DA62DB73EB76D
:1009E0002E5231090FB6F8943EBF0FBE2DBFADB7E2
:1009F000BEB711968EE2FE01319601900D928A9556
:100A0000E1F70E941C021C010FB6F894DEBF0FBE76
:100A1000CDBF00E010E000CF89818211FACF8A813A
:100A20008311F7CF82010F5F1F4FA5019401C7010A
:100A3000B6010E945B0A6B017C010A30110509F4C2
:100A400046C01EA70DA72DB73EB72E5231090FB6CF
:100A5000F8943EBF0FBE2DBFADB7BEB711968EE264
:100A6000FE01319601900D928A95E1F7CE018F96A5
:100A70000E9466028EE2FE01BF96DE011196019091
:100A80000D928A95E1F70DA51EA50FB6F894DEBF6D
:100A90000FBECDBF2DB73EB72E5231090FB6F89419
:100AA0003EBF0FBE2DBFADB7BEB711968EE2FE01A1
:100AB000319601900D928A95E1F70E941C021C016B
:100AC0000FB6F894DEBF0FBECDBF2801A2CF61E004
:100AD00070E082E090E00E947A00019709F0B1CFC7
:100AE0001EA70DA72DB73EB72E5231090FB6F894A9
:100AF0003EBF0FBE2DBFADB7BEB711968EE2FE0151
:100B0000319601900D928A95E1F70E9472030FB61B
:100B1000F894DEBF0FBECDBF019709F092CF85E0FC
:100B200090E0C05ADF4F0FB6F894DEBF0FBECDBFC6
:100B3000DF91CF911F910F91FF90EF90DF90CF90B9
:100B4000BF90AF909F908F907F906F905F904F90ED
:100B50003F902F9008950E94D1050E9484078CE257
:100B600091E00E94450A85E391E00E94C40984EF68
:100B700091E00E94D20761E070E080E090E00E9486
:100B80007A00019741F40E94A9080E94B4000E94D3
:100B9000BF03059719F080E090E0089585E090E0AC
:100BA0000895E1E6F0E080E880831082A89584B79C
:100BB000877F84BFE0E6F0E08081886180831082D7
:100BC00008951092800084E0809381001092850047
:100BD000109284000895809184009091850008957A
:100BE000AC0180918400909185009C01241B350B01
:100BF000283E3340B0F7089520918400309185005D
:100C0000820F931F0C94F005853098F4673088F4B8
:100C100021E030E001C0220F6A95EAF7E82FF0E00A
:100C2000E956FD4F922F9095808189234111822BA7
:100C300080830895853080F4673070F421E030E0DF
:100C400001C0220F6A95EAF7E82FF0E0E956FD4F60
:100C50008081282381E009F480E008956091960264
:100C6000E62FF0E0E956FD4F80810E947C068091DE
:100C700096028F5F853018F4809396020895109243
:100C800096020895E7E9F2E010821182128213823F
:100C9000148208950E945A060C9442069C01FC019D
:100CA000FF2784A1832B84A395A1892F832B85A360
:100CB00081E00895CF93DF93CBEBD1E089919991B7
:100CC0000E944E0681E0C93CD807C1F783E090E45A
:100CD0000E944E0680E090E80E944E0683E090E17C
:100CE0000E944E0683E090E80E944E0683E090E268
:100CF000DF91CF910C944E06E0919C02F0E0EE0F54
:100D0000FF1FEF54FE4F20813181F901FF2795A18C
:100D1000932B95A3EBEBF1E097E020813181D90192
:100D2000BB2795962C91959780FF03C03095232380
:100D300001C0232B95962C93869591503296911154
:100D4000ECCFE62FF0E0EE0FFF1FEF54FE4F808157
:100D50009181FC01FF2785A19095892385A360934C
:100D60009C0208956230710519F170F461307105CB
:100D700059F5FC01FF2724A1392F3095922F932399
:100D800094A385A183231DC06330710541F06430B5
:100D90007105D1F4FC01FF2784A1892B0FC0FC0150
:100DA000FF2784A1892B84A385A19095892309C05D
:100DB000FC01FF2784A1292F2095822384A385A1EC
:100DC000892B85A381E0089580E00895E82FF0E065
:100DD000EE0FFF1FE356FD4F8081882321F09181A4
:100DE00081E0892702C080E090E081700895E82FBB
:100DF000F0E0EE0FFF1FE356FD4F8081811102C02E
:100E0000818102C080E090E081700895E82FF0E0D9
:100E1000EE0FFF1FE356FD4F80810895E82FF0E0AD
:100E2000EE0FFF1FE356FD4F908181E08927089563
:100E30007F928F929F92AF92BF92CF92DF92EF926A
:100E4000FF920F931F93CF93DF93CDE9D2E059EC3C
:100E5000C52E51E0D52E66E0762E88818983F60175
:100E6000019111916F015801BB24F50124A1E12EDC
:100E7000FF2485A190E08E219F2130E02E213F218B
:100E8000232B31F0892B51F433E0832E912C0DC0AC
:100E9000892B41F488248394912C07C094E0892EF7
:100EA000912C03C082E0882E912C64E070E0C80190
:100EB0000E94B20662E070E0C8010E94B206872D6F
:100EC0008A95F1F7F50183A190E0E822F92281E00B
:100ED000EF2809F080E08883B401C8010E94B206BF
:100EE0002296F2E0C73ADF0709F0B7CFDF91CF9142
:100EF0001F910F91FF90EF90DF90CF90BF90AF9038
:100F00009F908F907F9008950895009789F0FC013D
:100F10002381621B67FD09C0062E000C770B24811C
:100F200030E081E0621773070CF080E08170089573
:100F300080E00895CF93DF93FC01892B79F18181C3
:100F4000481760F59281291748F59381A62FA91BB0
:100F5000A7FD24C00A2E000CBB0BC481D0E0AC1747
:100F6000BD07E4F4622F0E94F00B480F858190E0EA
:100F7000BD010E94F90B0696242F269526952695ED
:100F8000E80FF91FE20FF11D808190E0477002C069
:100F9000959587954A95E2F7817001C080E0DF91D1
:100FA000CF910895CF93DF93EC010E94E1059E015C
:100FB00040E050E062E17AE780E090E00E94320C8D
:100FC0003093AA022093A902DF91CF9108958091D6
:100FD000A7029091A8020E94F0052091A7023091EB
:100FE000A8028091A9029091AA02820F931F909368
:100FF000A8028093A7020895692F0C941A0641E075
:10100000611101C040E0692F0C9404060C94FF07A5
:101010005F926F927F928F929F92AF92BF92CF9288
:10102000DF92EF92FF920F931F93CF93DF93562E91
:10103000872E942E5C01E62EF72EC62F660FDD0B51
:10104000C81BD10987FDD395072F770F110B091BFB
:10105000110997FD1395D7FF03C077247A9402C036
:101060007724739417FF03C066246A9402C0662431
:101070006394D7FF03C0D195C195D10917FF03C071
:10108000119501951109C017D107A4F06E01D594EF
:10109000C794F92EA51411F1692D8A2D9F2D0E9458
:1010A000FF07C01AD10AD7FE03C0CC0EDD1EF60C16
:1010B000A70CF0CF6801D594C794E82EB81471F04E
:1010C000692D8E2D9B2D0E94FF07CC1ADD0AD7FEBD
:1010D00003C0C00ED11EE70CB60CF0CF692DC701BE
:1010E000DF91CF911F910F91FF90EF90DF90CF9004
:1010F000BF90AF909F908F907F906F905F900C9477
:10110000FF07FF920F931F93CF93DF93D82FF92EF2
:10111000162FC72F042F792F0E940808402F6D2FFC
:101120007C2F8D2F9F2D0E940808402F612F7C2F30
:10113000812F9F2D0E940808402F612F7C2F8D2F1B
:101140009C2F0E940808DF91CF911F910F91FF9073
:1011500008950E944206E0E0F1E0118A14860895A5
:10116000DF92EF92FF920F931F93CF93DF93D82ECE
:101170007B01162F0F2D8091020190910301D0E089
:10118000019799F50F2D0D1BE0910801F0910901D0
:101190008181C0E0D817B8F48091080190910901CD
:1011A000FC012281C21768F42C2F4D2F6D2D0E9457
:1011B0009A07682F8E2D8C0F902F0E94FF07CF5F0C
:1011C000EBCFDF5FDFCFE0910801F0910901828171
:1011D000C81740F460E08E2D8C0F902F0E94FF07FF
:1011E000CF5FF1CF015030C0DF5F1E2D1D0FE091AA
:1011F0000801F09109018181C0E0D817A8F480911D
:10120000080190910901FC012281C21768F72C2F77
:101210004D2F6D2D0E949A07682F812F9F2D9C0FB7
:101220000E94FF07CF5FEBCFE0910801F091090129
:101230008281C81740F460E0812F9F2D9C0F0E948F
:10124000FF07CF5FF1CF1F5F812F902FDF91CF91ED
:101250001F910F91FF90EF90DF9008950F931F93D0
:10126000CF938C01C0E0F80181918F01882341F078
:101270000E94B008BC01CF5F853014F477FFF3CF34
:101280008C2FCF911F910F9108950F931F93CF93A0
:10129000DF9310920C0140930D0110921001009108
:1012A0000801109109010115110509F449C09B01BC
:1012B000EC01F8018181609106017091070190E0D5
:1012C0000E94F90BBC0180910A0190910B010E94D0
:1012D0000A0CCB016AE070E00E94F90B90930F01B9
:1012E00080930E01309305012093040140E250E009
:1012F000BE0181E191E00E94D70C809100019091A4
:1013000001010197E9F4FE0101900020E9F731970E
:10131000BF016C1B7D0BF80181818F5F0E94F00B78
:10132000815020910201309103012130310511F0EB
:1013300095E001C097E0981718F48EEF80931001A4
:10134000DF91CF911F910F9108952091020130916B
:1013500003012130310511F070E001C076E04FEF5C
:1013600060E00E944509089590E090930701809302
:1013700006010895909301018093000108959093D0
:10138000030180930201089590930901809308015D
:1013900008958091AB029091AC0201969093AC02BB
:1013A0008093AB0220910E0130910F0182179307B9
:1013B00008F469C01092AC021092AB02E0910C01EB
:1013C000F0E0E050FF4F818981110AC080910D014A
:1013D000823008F458C0815080930D0110920C01A6
:1013E00080910C0190E0FC01E050FF4F2189222305
:1013F00009F449C040910001509101012091100170
:101400004115510521F04130510599F024C02111B9
:1014100022C060910401709105018F5E9E4F0E9471
:101420002E0990E0019790910C01890F80930C0197
:1014300012C0609104017091050140910201509128
:1014400003014130510511F4720F01C0621B8F5E20
:101450009E4F0E942E09809110018F5F8093100192
:10146000082E000C990BE0910801F09109012181EF
:1014700030E0281739073CF41092100180910C01DC
:101480008F5F80930C010C942E06CF93DF93C0E006
:10149000D1E09B878A870E944A0684E190E09F837F
:1014A0008E83DF91CF910C94A9080E9484070E943B
:1014B000AB05FDCF5058BB27AA270E94720A0C9497
:1014C0008D0B0E947F0B38F00E94860B20F039F4C0
:1014D0009F3F19F426F40C947C0B0EF4E095E7FB87
:1014E0000C94760BE92F0E949E0B58F3BA176207F3
:1014F00073078407950720F079F4A6F50C94C00BC8
:101500000EF4E0950B2EBA2FA02D0B01B90190011E
:101510000C01CA01A0011124FF27591B99F0593F62
:1015200050F4503E68F11A16F040A22F232F342FAA
:101530004427585FF3CF469537952795A795F040F8
:101540005395C9F77EF41F16BA0B620B730B840B0D
:10155000BAF09150A1F0FF0FBB1F661F771F881FC5
:10156000C2F70EC0BA0F621F731F841F48F487951D
:1015700077956795B795F7959E3F08F0B0CF93950F
:10158000880F08F09927EE0F9795879508950E9488
:10159000DB0A0C948D0B0E94860B58F00E947F0B87
:1015A00040F029F45F3F29F00C94760B51110C9414
:1015B000C10B0C947C0B0E949E0B68F39923B1F332
:1015C000552391F3951B550BBB27AA276217730769
:1015D000840738F09F5F5F4F220F331F441FAA1FFD
:1015E000A9F335D00E2E3AF0E0E832D091505040B9
:1015F000E695001CCAF72BD0FE2F29D0660F771F67
:10160000881FBB1F261737074807AB07B0E809F04C
:10161000BB0B802DBF01FF2793585F4F3AF09E3FD1
:10162000510578F00C94760B0C94C10B5F3FE4F3FA
:10163000983ED4F3869577956795B795F7959F5F14
:10164000C9F7880F911D9695879597F90895E1E060
:10165000660F771F881FBB1F621773078407BA07BF
:1016600020F0621B730B840BBA0BEE1F88F7E0951A
:101670000895E89409C097FB3EF490958095709585
:1016800061957F4F8F4F9F4F9923A9F0F92F96E9CE
:10169000BB279395F695879577956795B795F11143
:1016A000F8CFFAF4BB0F11F460FF1BC06F5F7F4FE0
:1016B0008F4F9F4F16C0882311F096E911C07723F2
:1016C00021F09EE8872F762F05C0662371F096E8FB
:1016D000862F70E060E02AF09A95660F771F881FCA
:1016E000DAF7880F9695879597F9089597F99F6788
:1016F00080E870E060E008959FEF80EC089500249A
:101700000A941616170618060906089500240A9466
:1017100012161306140605060895092E0394000CEC
:1017200011F4882352F0BB0F40F4BF2B11F460FF7B
:1017300004C06F5F7F4F8F4F9F4F089557FD9058A4
:10174000440F551F59F05F3F71F04795880F97FB85
:10175000991F61F09F3F79F087950895121613063F
:101760001406551FF2CF4695F1DF08C0161617066E
:101770001806991FF1CF86957105610508940895A3
:10178000E894BB2766277727CB0197F908950E9435
:10179000CC0B08F48FEF0895990F0008550FAA0B92
:1017A000E0E8FEEF16161706E807F907C0F0121674
:1017B0001306E407F50798F0621B730B840B950B77
:1017C00039F40A2661F0232B242B252B21F40895CC
:1017D0000A2609F4A140A6958FEF811D811D089569
:1017E000002480FD060E660F11F08695D1F7802D3E
:1017F00008950024552704C0080E591F880F991F0B
:10180000009729F076956795B8F37105B9F7802DA3
:10181000952F0895AA1BBB1B51E107C0AA1FBB1F30
:10182000A617B70710F0A61BB70B881F991F5A956C
:10183000A9F780959095BC01CD01089597FB072EDF
:1018400016F4009407D077FD09D00E940A0C07FC1B
:1018500005D03EF4909581959F4F089570956195C0
:101860007F4F0895052E97FB1EF400940E94490CAB
:1018700057FD07D00E94570C07FC03D04EF40C9480
:10188000490C50954095309521953F4F4F4F5F4FF4
:10189000089590958095709561957F4F8F4F9F4FDC
:1018A0000895EE0FFF1F0590F491E02D0994A1E239
:1018B0001A2EAA1BBB1BFD010DC0AA1FBB1FEE1FCA
:1018C000FF1FA217B307E407F50720F0A21BB30B15
:1018D000E40BF50B661F771F881F991F1A9469F791
:1018E00060957095809590959B01AC01BD01CF01ED
:1018F00008958F929F92AF92BF92CF92DF92EF9214
:10190000FF92CF93DF93EC01688179818A819B817B
:10191000611571058105910521F464E279ED8BE58E
:1019200097E02DE133EF41E050E00E94320C490195
:101930005A0127EA31E440E050E00E94E60C6B01D6
:101940007C012CEE34EF4FEF5FEFC501B4010E9434
:10195000E60CDC01CB018C0D9D1DAE1DBF1DB7FF3C
:1019600003C00197A109B04888839983AA83BB83E8
:101970009F77DF91CF91FF90EF90DF90CF90BF9056
:10198000AF909F908F9008950E94790C089581E305
:1019900091E00E94790C0895A0E0B0E080933101BD
:1019A00090933201A0933301B09334010895FB0169
:1019B000DC014150504048F001900D920020C9F7E1
:1019C00001C01D9241505040E0F70895EE27FF27D7
:1019D000AA27BB2708C0A20FB31FE41FF51F220FC1
:1019E000331F441F551F969587957795679598F3F4
:1019F0007040A9F7009799F7BD01CF010895F894B9
:021A0000FFCF16
:101A020000000000000014000000000000000000C0
:101A120000000000000000000000000000000000C4
:101A220000000000000000000000000000000000B4
:101A32000001000000010305203B0200009220EBA0
:101A4200737D5FDE3DA552EA7A14004A222229BA4A
:101A52002ED0050014C0010020A4126A2B9A74A390
:101A620072A338ED498F38CE2AA712AA2AAE49109E
:101A72000410145444380E11152A250000EA5BEBB9
:101A82003A4F726B3BCF73CF134F7AED5B9774244F
:101A92007B5D564972FD5B6F5B6F7BEF136F7FEF70
:101AA20057CE3897246D7B6D2BED5FAD5AAD24A7D1
:101AB20072034000800310038003200040002000D6
:101AC200100008000400020001038003400320000C
:101AD200800310534E414B4520534E414B452053FA
:101AE2004E414B4520534E414B4520534E414B45B1
:101AF20020534E414B4520534E414B450047414DEB
:101B020045204F5645522047414D45204F5645529C
:101B12002047414D45204F5645522047414D4520D3
:101B22004F5645522047414D45204F56455200578A
:101B3200454C4C20504C415945442057454C4C2073
:101B4200504C415945442057454C4C20504C41592A
:101B520045442057454C4C20504C41594544205750
:101B6200454C4C20504C41594544004C31004C32BC
:101B7200004C33003030003031003032003033005E
:101B82003034003035003036003037003038003025
:061B9200390031300000B3
:00000001FF
