:100000000C943A000C9457000C9457000C94570031
:100010000C9457000C9457000C9457000C94570004
:100020000C9457000C9457000C9457000C945700F4
:100030000C9457000C9457000C9457000C945700E4
:100040000C9457000C9457000C9457000C945700D4
:100050000C9457000C9457000C9457000C945700C4
:100060000C9457000C9457000C9457000C945700B4
:100070000C94570011241FBECFEFD4E0DEBFCDBFDC
:1000800012E0A0E0B1E0E6EBFEE002C005900D92C8
:10009000A031B107D9F722E0A0E1B2E001C01D9282
:1000A000A732B207E1F70E94D2060C9459070C94CC
:1000B00000008CE291E00E94C20681E391E00E9480
:1000C000410684E10E94310681E090E00E943706FB
:1000D00081E090E00C943C060E944E020E94590080
:1000E0000C94010484EF91E00E944F040E94640488
:1000F0000E9446060E94950383E00E9463038823C2
:1001000021F080E090E00E94370681E00E946303C6
:10011000882361F381E090E00E943706E7CF8DEA03
:1001200091E00E9422060E94720084EB91E00E94FE
:1001300022060E9472008FEB91E00E9422060E942C
:100140007200CF93DF93CDB7DEB7C056D1090FB69B
:10015000F894DEBF0FBECDBF0E944E028CE291E04C
:100160000E94C2060E9401048CE291E00E944F04AA
:100170006A961FAE6A9786E06B968FAF6B9761E0C9
:100180006B968EAD9FAD6B970E947C0400E010E0F3
:1001900046E0C42ED12CE12CF12C0E9464040E9474
:1001A00095038FEFE81AF80A8DE2E81681E0F80669
:1001B0000CF459C06A96DFAE6A976B96CFAE6B9718
:1001C0006D961FAF0EAF6D9788E0FE01E75AFF4FA7
:1001D000DE01AF5ABF4F01900D928A95E1F70130D1
:1001E000110559F040F00230110549F003301105B6
:1001F00039F4DA9405C0CA9403C0D39401C0C394FF
:100200006296DFAE62976396CFAE639761E06396C6
:100210008EAD9FAD63970E947C0465961FAF0EAFB5
:10022000659788E0FE01EF5AFF4FDE01A75BBF4FE5
:1002300001900D928A95E1F72A96DFAE2A972B96C8
:10024000CFAE2B972D961FAF0EAF2D9788E0FE01F6
:10025000E75BFF4FDE01A75ABF4F01900D928A95D1
:10026000E1F7E12CF12C81E00E946303882309F47B
:1002700046C06A96DFAE6A976B96CFAE6B976D9667
:100280001FAF0EAF6D9788E0FE01E75AFF4FDE010A
:10029000AF5BBF4F01900D928A95E1F788E0EDECDE
:1002A000F1E0DE01199601900D928A95E1F7000FB9
:1002B000111FE1E0F0E0EC0FFD1FE00FF11F908552
:1002C00081852296DFAE22972396CFAE2397249680
:1002D0009FAF249725968FAF259728E0FE01EF5B0F
:1002E000FF4FDE01D99601900D922A95E1F7D9AE24
:1002F000CAAE9BAF8CAF28E0FE01F996C3C083E085
:100300000E9463038823E1F16A96DFAE6A976B96D9
:10031000CFAE6B976D961FAF0EAF6D9788E0FE0165
:10032000E75AFF4FDE01D19601900D928A95E1F7D1
:1003300088E0E5EDF1E0DE01199601900D928A95D5
:10034000E1F7000F111FE1E0F0E0EC0FFD1FE00FFF
:10035000F11F90858185D9AACAAA9BAB8CAB28E0F6
:10036000FE01F196DE01999601900D922A95E1F732
:10037000D9A6CAA69BA78CA728E0FE01B99682C081
:1003800080E00E9463038823E1F16A96DFAE6A97FA
:100390006B96CFAE6B976D961FAF0EAF6D9788E0E3
:1003A000FE01E75AFF4FDE01919601900D928A956A
:1003B000E1F788E0EDEDF1E0DE01199601900D9294
:1003C0008A95E1F7000F111FE1E0F0E0EC0FFD1F4F
:1003D000E00FF11F90858185D9A2CAA29BA38CA3AF
:1003E00028E0FE01B196DE01599601900D922A9502
:1003F000E1F7D98ECA8E9B8F8C8F28E0FE0179960B
:1004000041C082E00E946303882309F444C06A96D5
:10041000DFAE6A976B96CFAE6B976D961FAF0EAF40
:100420006D9788E0FE01E75AFF4FDE01519601907B
:100430000D928A95E1F788E0E5EEF1E0DE0119968C
:1004400001900D928A95E1F7000F111FE1E0F0E0B5
:10045000EC0FFD1FE00FF11F90858185D98ACA8AB4
:100460009B8B8C8B28E0FE017196DE01119601902A
:100470000D922A95E1F7D982CA829B838C8328E06A
:10048000FE013196DE01A75ABF4F01900D922A95C9
:10049000E1F7092F182F0E9446067FCEE1E6F0E033
:1004A00080E880831082A89584B7877F84BFE0E6C8
:1004B000F0E080818861808310820895109280002E
:1004C00084E080938100109285001092840008954A
:1004D00080918400909185000895AC018091840002
:1004E000909185009C01241B350B283E3340B0F7CA
:1004F00008952091840030918500820F931F0C9401
:100500006D02853098F4673088F421E030E001C056
:10051000220F6A95EAF7E82FF0E0EF5EFD4F922F89
:100520009095808189234111822B808308958530A5
:1005300080F4673070F421E030E001C0220F6A954A
:10054000EAF7E82FF0E0EF5EFD4F8081282381E09D
:1005500009F480E0089560911002E62FF0E0EF5E6C
:10056000FD4F80810E94F902809110028F5F8530DB
:1005700018F4809310020895109210020895E1E19A
:10058000F2E01082118212821382148208950E9476
:10059000D7020C94BF029C01FC01FF2784A1832B8E
:1005A00084A395A1892F832B85A381E00895CF9300
:1005B000DF93C7EFD1E0899199910E94CB0282E04D
:1005C000C530D807C1F783E090E40E94CB0280E0F9
:1005D00090E80E94CB0283E090E10E94CB0283E08E
:1005E00090E80E94CB0283E090E2DF91CF910C94DF
:1005F000CB02E0911602F0E0EE0FFF1FE351FE4F39
:1006000020813181F901FF2795A1932B95A3E7EF75
:10061000F1E097E020813181D901BB2795962C919B
:10062000959780FF03C03095232301C0232B959617
:100630002C938695915032969111ECCFE62FF0E0F5
:10064000EE0FFF1FE351FE4F80819181FC01FF27D8
:1006500085A19095892385A3609316020895623041
:10066000710519F170F46130710559F5FC01FF272E
:1006700024A1392F3095922F932394A385A183230E
:100680001DC06330710541F064307105D1F4FC0187
:10069000FF2784A1892B0FC0FC01FF2784A1892B90
:1006A00084A385A19095892309C0FC01FF2784A11B
:1006B000292F2095822384A385A1892B85A381E0FE
:1006C000089580E00895E82FF0E0EE0FFF1FE95E47
:1006D000FD4F8081882321F0918181E0892702C02C
:1006E00080E090E081700895E82FF0E0EE0FFF1FAA
:1006F000E95EFD4F8081811102C0818102C080E0EE
:1007000090E081700895E82FF0E0EE0FFF1FE95EA2
:10071000FD4F80810895E82FF0E0EE0FFF1FE95EA6
:10072000FD4F908181E0892708957F928F929F925B
:10073000AF92BF92CF92DF92EF92FF920F931F93EF
:10074000CF93DF93C7E1D2E055E0C52E52E0D52E1E
:1007500066E0762E88818983F601019111916F01FF
:100760005801BB24F50124A1E12EFF2485A190E0CE
:100770008E219F2130E02E213F21232B31F0892B28
:1007800051F433E0832E912C0DC0892B41F4882441
:100790008394912C07C094E0892E912C03C082E0B1
:1007A000882E912C64E070E0C8010E942F0362E063
:1007B00070E0C8010E942F03872D8A95F1F7F5019B
:1007C00083A190E0E822F92281E0EF2809F080E09F
:1007D0008883B401C8010E942F032296F2E0C1323F
:1007E000DF0709F0B7CFDF91CF911F910F91FF90F5
:1007F000EF90DF90CF90BF90AF909F908F907F90C1
:1008000008950895009789F0FC012381621B67FD1C
:1008100009C0062E000C770B248130E081E06217BE
:1008200073070CF080E08170089580E00895CF9305
:10083000DF93FC01892B79F18181481760F5928162
:10084000291748F59381A62FA91BA7FD24C00A2EBE
:10085000000CBB0BC481D0E0AC17BD07E4F4622FE1
:100860000E94DB06480F858190E0BD010E94E406EE
:100870000696242F269526952695E80FF91FE20F58
:10088000F11D808190E0477002C0959587954A954B
:10089000E2F7817001C080E0DF91CF910895CF939E
:1008A000DF93EC010E945E029E0140E050E062E1B5
:1008B0007AE780E090E00E940907309324022093B9
:1008C0002302DF91CF91089580912102909122021D
:1008D0000E946D0220912102309122028091230218
:1008E00090912402820F931F909322028093210201
:1008F0000895692F0C94970241E0611101C040E016
:10090000692F0C9481020C947C045F926F927F9209
:100910008F929F92AF92BF92CF92DF92EF92FF920F
:100920000F931F93CF93DF93562E872E942E5C0147
:10093000E62EF72EC62F660FDD0BC81BD10987FDEB
:10094000D395072F770F110B091B110997FD1395ED
:10095000D7FF03C077247A9402C07724739417FFDB
:1009600003C066246A9402C066246394D7FF03C060
:10097000D195C195D10917FF03C0119501951109B2
:10098000C017D107A4F06E01D594C794F92EA51411
:1009900011F1692D8A2D9F2D0E947C04C01AD10A65
:1009A000D7FE03C0CC0EDD1EF60CA70CF0CF6801FD
:1009B000D594C794E82EB81471F0692D8E2D9B2D17
:1009C0000E947C04CC1ADD0AD7FE03C0C00ED11EE3
:1009D000E70CB60CF0CF692DC701DF91CF911F91C5
:1009E0000F91FF90EF90DF90CF90BF90AF909F90CE
:1009F0008F907F906F905F900C947C04FF920F9388
:100A00001F93CF93DF93D82FF92E162FC72F042FC4
:100A1000792F0E948504402F6D2F7C2F8D2F9F2DC5
:100A20000E948504402F612F7C2F812F9F2D0E94D3
:100A30008504402F612F7C2F8D2F9C2F0E948504D1
:100A4000DF91CF911F910F91FF9008950E94BF02F7
:100A5000E0E0F1E0118A14860895DF92EF92FF92B0
:100A60000F931F93CF93DF93D82E7B01162F0F2D5B
:100A70008091020190910301D0E0019799F50F2D2B
:100A80000D1BE0910801F09109018181C0E0D817A8
:100A9000B8F48091080190910901FC012281C217EC
:100AA00068F42C2F4D2F6D2D0E941704682F8E2D6A
:100AB0008C0F902F0E947C04CF5FEBCFDF5FDFCFE6
:100AC000E0910801F09109018281C81740F460E0CB
:100AD0008E2D8C0F902F0E947C04CF5FF1CF0150A0
:100AE00030C0DF5F1E2D1D0FE0910801F09109015C
:100AF0008181C0E0D817A8F4809108019091090184
:100B0000FC012281C21768F72C2F4D2F6D2D0E94FA
:100B10001704682F812F9F2D9C0F0E947C04CF5FAC
:100B2000EBCFE0910801F09109018281C81740F4F0
:100B300060E0812F9F2D9C0F0E947C04CF5FF1CF3E
:100B40001F5F812F902FDF91CF911F910F91FF9009
:100B5000EF90DF9008950F931F93CF938C01C0E027
:100B6000F80181918F01882341F00E942D05BC017D
:100B7000CF5F853014F477FFF3CF8C2FCF911F9187
:100B80000F9108950F931F93CF93DF9310920C0151
:100B900040930D011092100100910801109109017C
:100BA0000115110509F449C09B01EC01F80181818F
:100BB000609106017091070190E00E94E406BC017B
:100BC00080910A0190910B010E94F506CB016AE029
:100BD00070E00E94E40690930F0180930E01309321
:100BE00005012093040140E250E0BE0181E191E063
:100BF0000E944A0780910001909101010197E9F458
:100C0000FE0101900020E9F73197BF016C1B7D0BBD
:100C1000F80181818F5F0E94DB06815020910201E3
:100C2000309103012130310511F095E001C097E0CA
:100C3000981718F48EEF80931001DF91CF911F91D8
:100C40000F91089520910201309103012130310567
:100C500011F070E001C076E04FEF60E00E94C20545
:100C6000089590E090930701809306010895909372
:100C70000101809300010895909303018093020184
:100C800008959093090180930801089580912502A9
:100C9000909126020196909326028093250220913E
:100CA0000E0130910F018217930708F469C010926A
:100CB000260210922502E0910C01F0E0E050FF4F77
:100CC000818981110AC080910D01823008F458C0D9
:100CD000815080930D0110920C0180910C0190E0E5
:100CE000FC01E050FF4F2189222309F449C04091C3
:100CF000000150910101209110014115510521F091
:100D00004130510599F024C0211122C060910401A5
:100D1000709105018F5E9E4F0E94AB0590E0019798
:100D200090910C01890F80930C0112C06091040115
:100D3000709105014091020150910301413051052C
:100D400011F4720F01C0621B8F5E9E4F0E94AB05B3
:100D5000809110018F5F80931001082E000C990B79
:100D6000E0910801F0910901218130E0281739074D
:100D70003CF41092100180910C018F5F80930C0164
:100D80000C94AB02CF93DF93C0E0D1E09B878A87BE
:100D90000E94C70284E190E09F838E83DF91CF9110
:100DA0000C9426050E946C000E948F000E94A100F6
:100DB00080E090E00895002480FD060E660F11F09B
:100DC0008695D1F7802D08950024552704C0080E7C
:100DD000591F880F991F009729F076956795B8F3EA
:100DE0007105B9F7802D952F0895AA1BBB1B51E102
:100DF00007C0AA1FBB1FA617B70710F0A61BB70B8B
:100E0000881F991F5A95A9F780959095BC01CD012F
:100E10000895052E97FB1EF400940E94200757FDAD
:100E200007D00E94280707FC03D04EF40C9420073B
:100E300050954095309521953F4F4F4F5F4F089506
:100E400090958095709561957F4F8F4F9F4F089536
:100E5000A1E21A2EAA1BBB1BFD010DC0AA1FBB1FBE
:100E6000EE1FFF1FA217B307E407F50720F0A21B30
:100E7000B30BE40BF50B661F771F881F991F1A949D
:100E800069F760957095809590959B01AC01BD01C7
:100E9000CF010895FB01DC014150504048F0019022
:100EA0000D920020C9F701C01D9241505040E0F75B
:060EB0000895F894FFCF45
:100EB6000000000000001400000000000000000018
:100EC600000000000000000000000000000000001C
:100ED600000000000000000000000000000000000C
:100EE60000010305203B0200009220EB737D5FDECC
:100EF6003DA552EA7A14004A222229BA2ED00500CC
:100F060014C0010020A4126A2B9A74A372A338EDB0
:100F1600498F38CE2AA712AA2AAE491004101454B3
:100F260044380E11152A250000EA5BEB3A4F726B26
:100F36003BCF73CF134F7AED5B9774247B5D564995
:100F460072FD5B6F5B6F7BEF136F7FEF57CE38974A
:100F5600246D7B6D2BED5FAD5AAD24A772534E41C8
:100F66004B450000594F55204C4F53542000005715
:100F7600454C4C20504C415945442000000100028C
:100F86000003000000030000000100020000000151
:100F960000020003000200030000000100034000FD
:100FA600800310038003200040002000100008008A
:100FB60004000200010380034003200080031000A8
:00000001FF
